:020000040800F2
:1000000000500020751E0008851C00088B1C00088D
:10001000911C0008971C00089D1C000800000000AF
:10002000000000000000000000000000A31C000809
:10003000AF1C000800000000BB1C0008C71C000823
:10004000BD1E0008BD1E0008BD1E0008BD1E000824
:10005000BD1E0008BD1E0008BD1E0008BD1E000814
:10006000BD1E0008BD1E0008BD1E0008BD1E000804
:10007000BD1E0008BD1E0008BD1E0008BD1E0008F4
:10008000BD1E0008BD1E0008BD1E0008BD1E0008E4
:10009000BD1E0008BD1E0008BD1E0008BD1E0008D4
:1000A000BD1E0008BD1E0008BD1E0008BD1E0008C4
:1000B000BD1E0008BD1E0008BD1E0008BD1E0008B4
:1000C000BD1E0008BD1E0008BD1E0008BD1E0008A4
:1000D000BD1E0008D51C0008BD1E0008BD1E00087E
:1000E000BD1E0008BD1E0008BD1E00080000000067
:1000F0000000000000000000000000000000000000
:0C01000000000000000000005FF808F1A3
:1001100010B5054C237833B9044B13B10448AFF341
:1001200000800123237010BDD401002000000000D6
:100130000C8C000808B5034B1BB103490348AFF30F
:10014000008008BD00000000D80100200C8C0008D1
:10015000034613F8012B002AFBD1181A0138704707
:1001600081F0004102E000BF83F0004330B54FEA68
:1001700041044FEA430594EA050F08BF90EA020FD5
:100180001FBF54EA000C55EA020C7FEA645C7FEA68
:10019000655C00F0E2804FEA5454D4EB5555B8BF8B
:1001A0006D420CDD2C4480EA020281EA030382EAFC
:1001B000000083EA010180EA020281EA0303362D8E
:1001C00088BF30BD11F0004F4FEA01314FF4801C61
:1001D0004CEA113102D0404261EB410113F0004F73
:1001E0004FEA03334CEA133302D0524263EB43032A
:1001F00094EA050F00F0A780A4F10104D5F1200EC8
:100200000DDB02FA0EFC22FA05F2801841F1000122
:1002100003FA0EF2801843FA05F359410EE0A5F1F6
:1002200020050EF1200E012A03FA0EFC28BF4CF027
:10023000020C43FA05F3C01851EBE37101F00045DD
:1002400007D54FF0000EDCF1000C7EEB00006EEBEA
:100250000101B1F5801F1BD3B1F5001F0CD3490874
:100260005FEA30004FEA3C0C04F101044FEA4452CB
:1002700012F5800F80F09A80BCF1004F08BF5FEA52
:10028000500C50F1000041EB045141EA050130BD32
:100290005FEA4C0C404141EB0101013C28BFB1F544
:1002A000801FE9D291F0000F04BF01460020B1FA8F
:1002B00081F308BF2033A3F10B03B3F120020CDA62
:1002C0000C3208DD02F1140CC2F10C0201FA0CF040
:1002D00021FA02F10CE002F11402D8BFC2F1200CA5
:1002E00001FA02F120FA0CFCDCBF41EA0C0190405B
:1002F000E41AA2BF01EB0451294330BD6FEA0404A4
:100300001F3C1CDA0C340EDC04F11404C4F120028E
:1003100020FA04F001FA02F340EA030021FA04F3A0
:1003200045EA030130BDC4F10C04C4F1200220FAF7
:1003300002F001FA04F340EA0300294630BD21FA35
:1003400004F0294630BD94F0000F83F4801306BFFB
:1003500081F480110134013D4EE77FEA645C18BFEF
:100360007FEA655C29D094EA050F08BF90EA020F86
:1003700005D054EA000C04BF1946104630BD91EA7E
:10038000030F1EBF0021002030BD5FEA545C05D181
:100390004000494128BF41F0004130BD14F58004C0
:1003A0003CBF01F5801130BD01F0004545F0FE4134
:1003B00041F470014FF0000030BD7FEA645C1ABF69
:1003C000194610467FEA655C1CBF0B46024650EAA0
:1003D000013406BF52EA033591EA030F41F40021CC
:1003E00030BD00BF90F0000F04BF0021704730B552
:1003F0004FF4806404F132044FF000054FF0000127
:1004000050E700BF90F0000F04BF0021704730B5E7
:100410004FF4806404F1320410F0004548BF4042BC
:100420004FF000013EE700BF42004FEAE2014FEA11
:1004300031014FEA02701FBF12F07F4393F07F4FEC
:1004400081F06051704732F07F4208BF704793F0EF
:100450007F4F04BF41F40021704730B54FF4607402
:1004600001F0004521F000411CE700BF50EA010205
:1004700008BF704730B54FF000050AE050EA0102AE
:1004800008BF704730B511F0004502D5404261EB1E
:1004900041014FF4806404F132045FEA915C3FF45F
:1004A000D8AE4FF003025FEADC0C18BF03325FEAFC
:1004B000DC0C18BF033202EBDC02C2F1200300FAAD
:1004C00003FC20FA02F001FA03FE40EA0E0021FAD2
:1004D00002F11444BDE600BF70B54FF0FF0C4CF4C0
:1004E000E06C1CEA11541DBF1CEA135594EA0C0F72
:1004F00095EA0C0F00F0DEF82C4481EA030621EAAD
:100500004C5123EA4C5350EA013518BF52EA0335E7
:1005100041F4801143F4801338D0A0FB02CE4FF099
:100520000005E1FB02E506F00042E0FB03E54FF0C9
:100530000006E1FB03569CF0000F18BF4EF0010EC1
:10054000A4F1FF04B6F5007F64F5407404D25FEABD
:100550004E0E6D4146EB060642EAC62141EA555170
:100560004FEAC52040EA5E504FEACE2EB4F1FD0CB2
:1005700088BFBCF5E06F1ED8BEF1004F08BF5FEA30
:10058000500E50F1000041EB045170BD06F00046E2
:1005900046EA010140EA020081EA0301B4EB5C048F
:1005A000C2BFD4EB0C0541EA045170BD41F4801187
:1005B0004FF0000E013C00F3AB8014F1360FDEBFAC
:1005C000002001F0004170BDC4F10004203C35DA88
:1005D0000C341BDC04F11404C4F1200500FA05F30B
:1005E00020FA04F001FA05F240EA020001F00042AC
:1005F00021F0004110EBD37021FA04F642EB060122
:100600005EEA430E08BF20EAD37070BDC4F10C044B
:10061000C4F1200500FA04F320FA05F001FA04F20F
:1006200040EA020001F0004110EBD37041F10001FB
:100630005EEA430E08BF20EAD37070BDC4F1200506
:1006400000FA05F24EEA020E20FA04F301FA05F26E
:1006500043EA020321FA04F001F0004121FA04F216
:1006600020EA020000EBD3705EEA430E08BF20EAE6
:10067000D37070BD94F0000F0FD101F00046400020
:1006800041EB010111F4801F08BF013CF7D041EAA2
:10069000060195F0000F18BF704703F000465200A6
:1006A00043EB030313F4801F08BF013DF7D043EA77
:1006B0000603704794EA0C0F0CEA135518BF95EA2D
:1006C0000C0F0CD050EA410618BF52EA4306D1D1B4
:1006D00081EA030101F000414FF0000070BD50EAD3
:1006E000410606BF1046194652EA430619D094EA5D
:1006F0000C0F02D150EA013613D195EA0C0F05D147
:1007000052EA03361CBF104619460AD181EA03019A
:1007100001F0004141F0FE4141F470014FF0000052
:1007200070BD41F0FE4141F4780170BD70B54FF0ED
:10073000FF0C4CF4E06C1CEA11541DBF1CEA13556D
:1007400094EA0C0F95EA0C0F00F0A7F8A4EB05044F
:1007500081EA030E52EA03354FEA013100F0888046
:100760004FEA03334FF0805545EA131343EA12630F
:100770004FEA022245EA111545EA10654FEA0026C4
:100780000EF000419D4208BF964244F1FD0404F57D
:10079000407402D25B084FEA3202B61A65EB0305D9
:1007A0005B084FEA32024FF480104FF4002CB6EB96
:1007B000020E75EB030E22BFB61A754640EA0C0016
:1007C0005B084FEA3202B6EB020E75EB030E22BF56
:1007D000B61A754640EA5C005B084FEA3202B6EB97
:1007E000020E75EB030E22BFB61A754640EA9C0056
:1007F0005B084FEA3202B6EB020E75EB030E22BF26
:10080000B61A754640EADC0055EA060E18D04FEAE3
:10081000051545EA16754FEA06164FEAC30343EA83
:1008200052734FEAC2025FEA1C1CC0D111F4801F50
:100830000BD141EA00014FF000004FF0004CB6E749
:1008400011F4801F04BF01430020B4F1FD0C88BFE8
:10085000BCF5E06F3FF6AFAEB5EB030C04BFB6EBF3
:10086000020C5FEA500C50F1000041EB045170BDE6
:100870000EF0004E4EEA113114EB5C04C2BFD4EB13
:100880000C0541EA045170BD41F480114FF0000E97
:10089000013C90E645EA060E8DE60CEA135594EA13
:1008A0000C0F08BF95EA0C0F3FF43BAF94EA0C0F16
:1008B0000AD150EA01347FF434AF95EA0C0F7FF48B
:1008C00025AF104619462CE795EA0C0F06D152EADF
:1008D00003353FF4FDAE1046194622E750EA4106C3
:1008E00018BF52EA43067FF4C5AE50EA41047FF4D4
:1008F0000DAF52EA43057FF4EBAE12E74FF0FF3C39
:1009000006E000BF4FF0010C02E000BF4FF0010C09
:100910004DF804CD4FEA410C7FEA6C5C4FEA430C82
:1009200018BF7FEA6C5C1BD001B050EA410C0CBFD1
:1009300052EA430C91EA030F02BF90EA020F002033
:10094000704710F1000F91EA030F58BF994208BF9A
:1009500090422CBFD8176FEAE37040F00100704757
:100960004FEA410C7FEA6C5C02D150EA013C07D1AE
:100970004FEA430C7FEA6C5CD6D152EA033CD3D0F9
:100980005DF8040B704700BF8446104662468C46F3
:100990001946634600E000BF01B5FFF7B7FF002826
:1009A00048BF10F1000F01BD4DF808EDFFF7F4FF4F
:1009B0000CBF012000205DF808FB00BF4DF808EDDA
:1009C000FFF7EAFF34BF012000205DF808FB00BFFD
:1009D0004DF808EDFFF7E0FF94BF012000205DF81F
:1009E00008FB00BF4DF808EDFFF7CEFF94BF0120D4
:1009F00000205DF808FB00BF4DF808EDFFF7C4FFCD
:100A000034BF012000205DF808FB00BF4FEA410C15
:100A10007FEA6C5C02D150EA013C0AD14FEA430CF8
:100A20007FEA6C5C02D152EA033C02D14FF0000035
:100A300070474FF0010070474FEA410212F5001273
:100A400015D211D56FF47873B3EB625212D94FEA15
:100A5000C12343F0004343EA505311F0004F23FAFF
:100A600002F018BF404270474FF00000704750EA54
:100A7000013005D111F0004008BF6FF00040704711
:100A80004FF00000704700BF4A0011D212F500126B
:100A900011D20DD56FF47873B3EB62520ED44FEAD6
:100AA000C12343F0004343EA505323FA02F0704756
:100AB0004FF00000704750EA013002D14FF0FF3094
:100AC00070474FF0000070474FEA4102B2F1E04337
:100AD00024BFB3F5001CDCF1FE5C0DD901F0004C25
:100AE0004FEAC0024CEA5070B2F1004F40EB830075
:100AF00008BF20F00100704711F0804F21D113F1A1
:100B00003872BCBF01F00040704741F480114FEAD9
:100B10005252C2F11802C2F1200C10FA0CF320FA62
:100B200002F018BF40F001004FEAC1234FEAD3237F
:100B300003FA0CFC40EA0C0023FA02F34FEA4303E9
:100B4000CCE77FEA625307D150EA01331EBF4FF072
:100B5000FE4040F44000704701F0004040F0FE408D
:100B600040F40000704700BF38B505460C4600222F
:100B7000002328462146FFF721FF28B928462146B1
:100B8000BDE8384000F00AB8284604F1004100F002
:100B900005F8404261EB410138BD00BFD0B50022ED
:100BA0000B4B06460F46FFF797FCFFF76DFF044619
:100BB000FFF718FC0022074BFFF78EFC02460B469E
:100BC00030463946FFF7D0FAFFF75EFF2146D0BD29
:100BD0000000F03D0000F04180B582B000AF7860C9
:100BE0001E2000F02BFC03220349044802F0DFFE24
:100BF00000BF0837BD4680BDC8020020800200202B
:100C0000B0B58EB002AF01F05BF900F065FA00F00C
:100C1000A1FB00F0A7FA00F013FB00F071FB00F05D
:100C2000ABFE00F0FDFC00F0EBFC0021B84802F048
:100C300089F90021B74802F085F90421B54802F08E
:100C400081F95A2000F0FAFB502000F021FC5A23D1
:100C5000FB625023BB6201224FF48071AE4801F069
:100C6000F9FC4FF0FF330322AC49AD4802F00DFE12
:100C700064230322A949AA4802F084FDA74B1B78EC
:100C80009AB2A84B1A80A54B5B789AB2A54B5A80B2
:100C9000A24B9B789AB2A34B9A80A24B1B881B094C
:100CA0009BB21846FFF7AEFB4FF000029E4BFFF7DA
:100CB00013FC02460B4614461D469A4B1B8803F054
:100CC0000F031846FFF79EFB02460B4620462946B7
:100CD000FFF74CFA02460B4610461946FFF7D4FEC2
:100CE00003469AB28F4B1A808E4B5B881B099BB2CE
:100CF0001846FFF787FB4FF000028B4BFFF7ECFB2A
:100D000002460B4614461D46864B5B8803F00F03D4
:100D10001846FFF777FB02460B4620462946FFF7A9
:100D200025FA02460B4610461946FFF7ADFE03466C
:100D30009AB27C4B5A807B4B9B881B099BB218460E
:100D4000FFF760FB4FF00002774BFFF7C5FB024651
:100D50000B4614461D46734B9B8803F00F03184641
:100D6000FFF750FB02460B4620462946FFF7FEF9E7
:100D700002460B4610461946FFF786FE03469AB216
:100D8000684B9A80674B1B88684AA2FB0323DB08E9
:100D90009BB21846FFF736FB02460B461046194633
:100DA000FFF772FE03469AB2614B1A805D4B1A88B8
:100DB0005F4B1B8819464903C91A8900CB1A5B008F
:100DC0009BB213449AB25A4B5A80564B5B88574A8F
:100DD000A2FB0323DB089BB21846FFF713FB024676
:100DE0000B4610461946FFF74FFE03469AB2504B8A
:100DF0009A804C4B5A884E4B9B8819464903C91A16
:100E00008900CB1A5B009BB213449AB2484BDA803C
:100E1000444B9B88454AA2FB0323DB089BB2184640
:100E2000FFF7F0FA02460B4610461946FFF72CFE74
:100E300003469AB23E4B1A813A4B9A883C4B1B8927
:100E400019464903C91A8900CB1A5B009BB21344A7
:100E50009AB2374B5A81364B1B881A46642303FBE0
:100E600002F2334B5B8819460B469B000B445B0038
:100E700013442F4A92881344BB612D4BDB881A46DA
:100E8000642303FB02F22A4B1B8919460B469B0085
:100E90000B445B001344264A528913447B61244B64
:100EA0001B881A46642303FB02F2214B5B88194618
:100EB0000B469B000B445B0013441D4A928813446D
:100EC000A3F5A0733B611A4BDB881A46642303FB2E
:100ED00002F2174B1B8919460B469B000B445B0023
:100EE0001344134A52891344C3F1F003FB603B6976
:100EF000002B03DC3B695B427B6201E03B697B6268
:100F0000FB68002B16DCFB685B423B6214E000BF11
:100F100038020020F0010020000C0140C80200202F
:100F200080020020CC02002000002440CDCCCCCC9C
:100F3000D4020020FB683B62654A0521002000F0D6
:100F4000E9FCBA690C23009306230521282000F050
:100F500073FC7A690C23009306230521502000F0CE
:100F60006BFC5C4A2821002000F0D4FC7A6A0C2338
:100F7000009306232821282000F05EFC3A6A0C2307
:100F8000009306232821502000F056FC00F0B4FA0C
:100F9000322000F0F7FF3B69002B05DDFB68002BDA
:100FA00002DD0123FB6119E03B69002B05DAFB68D8
:100FB000002B02DD0223FB6110E03B69002B05DA08
:100FC000FB68002B02DA0323FB6107E03B69002B7F
:100FD00004DDFB68002B01DA0423FB610323BB6003
:100FE00032237B603B69002BB8BF5B427A689A4230
:100FF00007DBFB68002BB8BF5B427A689A42BFF6FA
:1010000030AEFB69012B02D0FB69042B12D1FA6AC6
:10101000BB68D31AFB62FB6AB32B01DDB423FB620E
:10102000FB6A042B01DC0523FB62FB6A9BB21846BA
:1010300000F004FAFB69022B02D0FB69032B12D1EA
:10104000FA6ABB681344FB62FB6AB32B01DDB4236D
:10105000FB62FB6A042B01DC0523FB62FB6A9BB28B
:10106000184600F0EBF9FB69012B02D0FB69022B5B
:1010700012D1BA6ABB68D31ABB62BB6AB32B01DD5B
:10108000B423BB62BB6A042B01DC0523BB62BB6AD1
:101090009BB2184600F0FCF9FB69032B03D0FB69F7
:1010A000042B7FF4DEADBA6ABB681344BB62BB6A33
:1010B000B32B01DDB423BB62BB6A042B01DC052327
:1010C000BB62BB6A9BB2184600F0E2F9C9E500BFFB
:1010D000288C0008308C000880B590B000AF07F174
:1010E000180328220021184604F06DF93B1D002248
:1010F0001A605A609A60DA601A610123BB614FF48A
:101100008033FB6100233B620123BB6202237B63CC
:101110004FF48033BB634FF4E013FB6307F1180314
:10112000184601F0AFFA0346002B01D000F0DEF9BB
:101130000F237B600223BB600023FB604FF48063BE
:101140003B6100237B613B1D0221184601F01CFD21
:101150000346002B01D000F0C9F900BF4037BD465F
:1011600080BD000080B58AB000AF07F120030022E7
:101170001A605A603B1D00221A605A609A60DA6059
:101180001A615A619A612C4B2C4A1A602A4B40F220
:10119000CF225A60284B00229A60274B40F2CF7230
:1011A000DA60254B00221A61234B80229A61224883
:1011B00001F078FE0346002B01D000F097F90023E0
:1011C0003B6200237B6207F1200319461A4802F0B4
:1011D0002BFA0346002B01D000F088F960237B60D6
:1011E00040F2DC53BB600023FB6000237B613B1DAE
:1011F00000221946104801F047FF0346002B01D09A
:1012000000F074F93B1D042219460B4801F03CFF25
:101210000346002B01D000F069F90021064801F0D7
:1012200091FE0421044801F08DFE034800F082FC89
:1012300000BF2837BD4680BDF001002000040040FB
:1012400080B58AB000AF07F1200300221A605A600F
:101250003B1D00221A605A609A60DA601A615A6176
:101260009A61254B254A1A60234B40F2CF225A60DF
:10127000214B00229A60204B40F2CF72DA601E4B65
:1012800000221A611C4B80229A611B4801F00AFE61
:101290000346002B01D000F029F900233B62002314
:1012A0007B6207F120031946134802F0BDF903469B
:1012B000002B01D000F01AF960237B6040F2DC5370
:1012C000BB600023FB6000237B613B1D00221946AD
:1012D000094801F0D9FE0346002B01D000F006F9C1
:1012E0000021054801F02EFE034800F023FC00BF5A
:1012F0002837BD4680BD00BF3802002000080040EE
:1013000080B500AF114B124A1A60104B4FF4E13216
:101310005A600E4B00229A600C4B0022DA600B4B95
:1013200000221A61094B0C225A61084B00229A6173
:10133000064B0022DA61054802F0D4F90346002B7F
:1013400001D000F0D3F800BF80BD00BF80020020B4
:101350000038014080B588B000AF07F110030022CB
:101360001A605A609A60DA60314B9B69304A43F0E8
:10137000100393612E4B9B6903F01003FB60FB6825
:101380002B4B9B692A4A43F020039361284B9B69AE
:1013900003F02003BB60BB68254B9B69244A43F0E4
:1013A00004039361224B9B6903F004037B607B6819
:1013B0001F4B9B691E4A43F0080393611C4B9B69BA
:1013C00003F008033B603B6800224FF400411948DA
:1013D00001F040F900223821174801F03BF90122C1
:1013E0004FF48071144801F035F94FF400433B612C
:1013F00001237B610023BB610223FB6107F1100322
:1014000019460C4800F0A2FF4FF49C733B61012386
:101410007B610023BB610223FB6107F110031946C6
:10142000054800F093FF00BF2037BD4680BD00BFD8
:101430000010024000080140000C014080B485B05B
:1014400000AF0346FB80FB88002B01D10523FB8006
:10145000FB88B32B01D9B423FB80FB88642202FBF9
:1014600003F3094A82FB03121A449211DB17D31AC1
:101470009BB23233FB81054B1B68FA895A6300BF6C
:101480001437BD4680BC7047B7600BB638020020E9
:1014900080B485B000AF0346FB80FB88002B01D1F0
:1014A0000523FB80FB88B32B01D9B423FB80FB8889
:1014B000642202FB03F30B4A82FB03121A449211CB
:1014C000DB17D31A3233FB60074B1B68FA685A6389
:1014D000054B1B68FA689A6300BF1437BD4680BC91
:1014E000704700BFB7600BB6F001002080B400AFBA
:1014F00072B600BFFEE7000080B582B000AF0023E7
:10150000FB7126E0FB79503BDBB20021184600F06E
:101510002BF80021002000F027F80021102000F017
:1015200023F80023BB710DE0BA79FB790D49D20095
:101530000A4413441B780121184600F015F8BB79C2
:101540000133BB7197F90630002BEDDAFB790133DB
:10155000FB71FB79072BD5D900BF00BF0837BD460B
:1015600080BD00BFE002002080B584B000AF03461C
:101570000A46FB711346BB71BB79002B06D00122D2
:101580004FF400411C4801F065F805E000224FF4DB
:101590000041194801F05EF80023FB731EE00022B1
:1015A0002021164801F056F897F90730002B05DA8C
:1015B00001221021114801F04DF804E00022102111
:1015C0000E4801F047F8012220210C4801F042F8B2
:1015D000FB795B00FB71FB7B0133FB73FB7B072B10
:1015E000DDD901224FF40041034801F033F800BF78
:1015F0001037BD4680BD00BF00080140000C01400F
:1016000080B500AF00218D20FFF7AEFF0021142030
:10161000FFF7AAFF0021AF20FFF7A6FF00BF80BDA4
:1016200080B582B000AF0023FB7114E00023BB71D2
:101630000AE0BA79FB790C49D2000A44134400222B
:101640001A70BB790133BB7197F90630002BF0DAC1
:10165000FB790133FB71FB79072BE7D9FFF74CFFCF
:1016600000BF0837BD4680BDE002002080B485B0D1
:1016700000AF0346FB710B46BB7113467B71002321
:10168000FB7397F90730002B41DBBB793F2B3ED82A
:10169000BB79DB08DBB2C3F10703BB73BB7903F093
:1016A00007037B737B7BC3F10703012202FA03F379
:1016B000FB737B79002B12D0FA79BB7B1649D200E1
:1016C0000A4413441878FA79BB7BF97B0143C8B20A
:1016D0001149D2000A44134402461A7018E0FA79FC
:1016E000BB7B0D49D2000A4413441B785AB297F9C8
:1016F0000F30DB435BB2134059B2FA79BB7BC8B2FF
:101700000549D2000A44134402461A7000E000BFA3
:101710001437BD4680BC7047E002002090B585B00C
:1017200000AF0446084611461A462346FB7103469D
:10173000BB710B467B7113463B71BB793B737B7965
:10174000203B7B710023BB734DE03B790C2B0BD10D
:101750007A79B97B284813465B0013449B00034405
:101760000B441B78FB7307E07A79BB7B234912019A
:101770000A4413441B78FB7300237B732DE097F915
:101780000F30002B07DA97F82020B979FB7918463B
:10179000FFF76CFF0CE097F82030002B0CBF012303
:1017A0000023DBB21A46B979FB791846FFF75EFFD2
:1017B000FB7B5B00FB73BB790133BB71BA793B7B6D
:1017C000D21A3B799A4205D13B7BBB71FB7901333D
:1017D000FB7105E07B7B01337B737B7B072BCED9D1
:1017E000BB7B0133BB73BA7B3B799A42ADD300BF5D
:1017F00000BF1437BD4690BD388C0008AC9000087F
:1018000080B485B000AF03460A46FB711346BB7136
:101810000123FB6004E0FA79FB6802FB03F3FB6041
:10182000BB795A1EBA71002BF5D1FB6818461437E4
:10183000BD4680BC7047000090B587B002AF3A60EB
:101840001A460346FB710B46BB7113467B7100239E
:10185000BB730023FB7351E07A79FB7BD31ADBB2B5
:10186000013BDBB219460A20FFF7CAFF02463B687C
:10187000B3FBF2F1264BA3FB0123DA0813469B00CE
:1018800013445B00CA1A13467B73BB7B002B1DD12C
:10189000FA7B7B79013B9A4218DA7B7B002B13D1D0
:1018A00097F820305B08DBB2FA7B02FB03F3DAB275
:1018B000FB791344D8B297F82030B979012200920D
:1018C0002022FFF72BFF16E00123BB7397F820308F
:1018D0005B08DBB2FA7B02FB03F3DAB2FB79134459
:1018E000D8B27B7B3033DAB297F82030B979012453
:1018F0000094FFF713FFFB7B0133FB73FA7B7B79CB
:101900009A42A9D300BF00BF1437BD4690BD00BFA7
:10191000CDCCCCCC80B584B002AF03463A60FB712D
:101920000B46BB711FE0FB797A2B04D90023FB71B6
:10193000BB791033BB71BB793A2B05D90023FB71FE
:10194000FB79BB71FFF76CFE3B681A78B979F879BF
:10195000012300930C23FFF7E1FEFB790833FB71B1
:101960003B6801333B603B681B78002BDBD100BF39
:1019700000BF0837BD4680BD80B500AF00220821FA
:10198000394800F067FE642000F0FCFA01220821CB
:10199000354800F05FFE0021AE20FFF7E5FD002195
:1019A000D520FFF7E1FD00215020FFF7DDFD0021EC
:1019B000A820FFF7D9FD00213F20FFF7D5FD00212A
:1019C000D320FFF7D1FD00210020FFF7CDFD00213E
:1019D0004020FFF7C9FD00218D20FFF7C5FD002144
:1019E0001420FFF7C1FD00212020FFF7BDFD0021DD
:1019F0000220FFF7B9FD0021A120FFF7B5FD00216E
:101A0000C020FFF7B1FD0021DA20FFF7ADFD002176
:101A10001220FFF7A9FD00218120FFF7A5FD00217D
:101A2000EF20FFF7A1FD0021D920FFF79DFD002148
:101A3000F120FFF799FD0021DB20FFF795FD002144
:101A40003020FFF791FD0021A420FFF78DFD00213C
:101A5000A620FFF789FD0021AF20FFF785FDFFF7E6
:101A6000DFFD00BF80BD00BF000C014080B485B029
:101A700000AF154B9B69144A43F001039361124B6D
:101A80009B6903F00103BB60BB680F4BDB690E4A27
:101A900043F08053D3610C4BDB6903F080537B60D0
:101AA0007B680A4B5B68FB60FB6823F0E063FB60CC
:101AB000FB6843F00073FB60044AFB68536000BF9F
:101AC0001437BD4680BC7047001002400000014042
:101AD00080B485B000AF78607B681B68124A93427F
:101AE0000CD1124BDB69114A43F00203D3610F4B57
:101AF000DB6903F00203FB60FB6810E07B681B6896
:101B00000B4A93420BD1094BDB69084A43F00403AB
:101B1000D361064BDB6903F00403BB60BB6800BF05
:101B20001437BD4680BC70470004004000100240DE
:101B30000008004080B588B000AF786007F110035E
:101B400000221A605A609A60DA607B681B681E4A3D
:101B5000934218D11D4B9B691C4A43F004039361C7
:101B60001A4B9B6903F00403FB60FB68C0233B61D5
:101B700002237B610223FB6107F11003194614481D
:101B800000F0E4FB1CE07B681B68124A934217D10B
:101B90000E4B9B690D4A43F0080393610B4B9B6905
:101BA00003F00803BB60BB6840233B6102237B61F9
:101BB0000223FB6107F110031946074800F0C6FB3A
:101BC00000BF2037BD4680BD000400400010024029
:101BD0000008014000080040000C014080B588B0BA
:101BE00000AF786007F1100300221A605A609A6013
:101BF000DA607B681B68204A934239D11F4B9B698E
:101C00001E4A43F4804393611C4B9B6903F4804359
:101C1000FB60FB68194B9B69184A43F0040393610E
:101C2000164B9B6903F00403BB60BB684FF4007361
:101C30003B6102237B610323FB6107F1100319461B
:101C40000F4800F083FB4FF480633B6100237B610E
:101C50000023BB6107F110031946094800F076FB29
:101C600000220121252000F088FA252000F0A1FAA9
:101C700000BF2037BD4680BD003801400010024043
:101C80000008014080B400AFFEE780B400AFFEE77B
:101C900080B400AFFEE780B400AFFEE780B400AFD1
:101CA000FEE780B400AF00BFBD4680BC704780B483
:101CB00000AF00BFBD4680BC704780B400AF00BF1E
:101CC000BD4680BC704780B500AF00F03FF900BF53
:101CD00080BD000080B500AF024801F09DFE00BF4E
:101CE00080BD00BF8002002080B400AF01231846F1
:101CF000BD4680BC704780B582B000AF7860396067
:101D000003F0B4FB034616221A604FF0FF33184667
:101D10000837BD4680BD80B582B000AF78604FF017
:101D2000FF317868FFF7E7FFFEE780B586B000AFC8
:101D3000F860B9607A6000237B610AE0AFF300804D
:101D40000146BB685A1CBA60CAB21A707B6901337B
:101D50007B617A697B689A42F0DB7B6818461837AA
:101D6000BD4680BD80B586B000AFF860B9607A60CE
:101D700000237B6109E0BB685A1CBA601B781846D7
:101D8000AFF300807B6901337B617A697B689A429B
:101D9000F1DB7B6818461837BD4680BD80B483B040
:101DA00000AF78604FF0FF3318460C37BD4680BC5B
:101DB000704780B483B000AF786039603B684FF4FF
:101DC00000525A60002318460C37BD4680BC70474D
:101DD00080B483B000AF7860012318460C37BD464D
:101DE00080BC704780B485B000AFF860B9607A609D
:101DF000002318461437BD4680BC704780B586B0B6
:101E000000AF7860144A154BD31A7B617B693B6144
:101E1000134B1B68002B02D1114B124A1A60104B56
:101E20001A687B6813443A699A4207D203F01EFB92
:101E300003460C221A604FF0FF3309E0084B1B6881
:101E4000FB60074B1A687B681344054A1360FB6804
:101E500018461837BD4680BD005000200004000021
:101E6000E00600203808002080B400AF00BFBD4667
:101E700080BC7047FFF7F8FF0B480C490C4A002361
:101E800002E0D458C4500433C4188C42F9D3094A30
:101E9000094C002301E013600432A242FBD303F09B
:101EA000EBFAFEF7ADFE704700000020D4010020E1
:101EB000F89A0008D401002034080020FEE7000052
:101EC00080B500AF084B1B68074A43F0100313604E
:101ED000032000F047F90F2000F008F8FFF7C6FDD7
:101EE0000023184680BD00BF0020024080B582B0AC
:101EF00000AF7860124B1A68124B1B7819464FF4EA
:101F00007A73B3FBF1F3B2FBF3F3184600F05FF919
:101F10000346002B01D001230EE07B680F2B0AD86B
:101F2000002279684FF0FF3000F027F9064A7B68FD
:101F30001360002300E0012318460837BD4680BD2A
:101F400000000020080000200400002080B400AF42
:101F5000054B1B781A46054B1B681344034A136054
:101F600000BFBD4680BC704708000020E40600208A
:101F700080B400AF024B1B681846BD4680BC70475A
:101F8000E406002080B584B000AF7860FFF7F0FF72
:101F9000B8607B68FB60FB68B3F1FF3F05D00A4B7C
:101FA0001B781A46FB681344FB6000BFFFF7E0FF95
:101FB0000246BB68D31AFA689A42F7D800BF00BF3E
:101FC0001037BD4680BD00BF0800002080B485B03A
:101FD00000AF78607B6803F00703FB600C4BDB68A5
:101FE000BB60BA684FF6FF031340BB60FB681A0280
:101FF000BB68134343F0BF6343F40033BB60044A40
:10200000BB68D36000BF1437BD4680BC704700BFBB
:1020100000ED00E080B400AF044BDB681B0A03F066
:1020200007031846BD4680BC704700BF00ED00E0C6
:1020300080B483B000AF0346FB7197F90730002BE3
:102040000BDBFB7903F01F02064997F907305B09A8
:10205000012000FA02F241F8232000BF0C37BD46F0
:1020600080BC704700E100E080B483B000AF03465D
:102070003960FB7197F90730002B0ADB3B68DAB255
:102080000C4997F907301201D2B20B4483F80023B0
:102090000AE03B68DAB20849FB7903F00F03043B1E
:1020A0001201D2B20B441A7600BF0C37BD4680BC79
:1020B000704700BF00E100E000ED00E080B489B0AF
:1020C00000AFF860B9607A60FB6803F00703FB615A
:1020D000FB69C3F10703042B28BF0423BB61FB6921
:1020E0000433062B02D9FB69033B00E000237B612C
:1020F0004FF0FF32BB6902FA03F3DA43BB681A40C0
:102100007B699A404FF0FF317B6901FA03F3D943B1
:102110007B680B40134318462437BD4680BC70478C
:1021200080B582B000AF78607B68013BB3F1807FFF
:1021300001D301230FE00A4A7B68013B53600F2162
:102140004FF0FF30FFF790FF054B00229A60044BE1
:1021500007221A60002318460837BD4680BD00BF1D
:1021600010E000E080B582B000AF78607868FFF7DB
:102170002DFF00BF0837BD4680BD80B586B000AFDB
:102180000346B9607A60FB7300237B61FFF742FF6F
:1021900078617A68B9687869FFF790FF024697F925
:1021A0000F3011461846FFF75FFF00BF1837BD46D6
:1021B00080BD80B582B000AF0346FB7197F9073050
:1021C0001846FFF735FF00BF0837BD4680BD80B514
:1021D00082B000AF78607868FFF7A2FF0346184628
:1021E0000837BD4680BD80B485B000AF786000235D
:1021F000FB737B6893F82130DBB2022B08D07B683D
:1022000004229A637B68002283F82020012320E0C7
:102210007B681B681A687B681B6822F00E021A60D4
:102220007B681B681A687B681B6822F001021A60D1
:102230007B681A6C7B68DB6B012101FA02F25A6041
:102240007B68012283F821207B68002283F820200C
:10225000FB7B18461437BD4680BC704780B584B000
:1022600000AF78600023FB737B6893F82130DBB20A
:10227000022B05D07B6804229A630123FB7351E093
:102280007B681B681A687B681B6822F00E021A6064
:102290007B681B681A687B681B6822F001021A6061
:1022A0007B681B68224A934229D07B681B68214ABD
:1022B000934222D07B681B681F4A93421AD07B68E6
:1022C0001B681E4A934212D07B681B681C4A9342CB
:1022D0000AD07B681B681B4A934202D14FF48013DB
:1022E0000EE04FF080730BE04FF4803308E04FF4C2
:1022F000805305E04FF4807302E0102300E00123D7
:10230000114A53607B68012283F821207B680022F8
:1023100083F820207B685B6B002B03D07B685B6BB2
:1023200078689847FB7B18461037BD4680BD00BFD4
:10233000080002401C0002403000024044000240FD
:10234000580002406C0002400000024080B48BB094
:1023500000AF7860396000237B6200233B6269E153
:1023600001227B6A02FA03F3FB613B681B68FA698E
:102370001340BB61BA69FB699A4240F058813B68DF
:102380005B689A4A93425ED0984A934275D8984ABD
:10239000934258D0964A93426FD8964A934252D06D
:1023A000944A934269D8944A93424CD0924A9342B9
:1023B00063D8924A934246D0904A93425DD8122BFA
:1023C0002AD8122B59D801A252F823F0472400082A
:1023D0002124000833240008752400087B24000809
:1023E0007B2400087B2400087B2400087B24000851
:1023F0007B2400087B2400087B2400087B24000841
:102400007B2400087B2400087B2400087B24000830
:10241000292400083D240008794A934213D02CE077
:102420003B68DB683B6229E03B68DB6804333B6266
:1024300024E03B68DB6808333B621FE03B68DB68F5
:102440000C333B621AE03B689B68002B02D10423EB
:102450003B6213E03B689B68012B05D108233B627C
:102460007B68FA691A6109E008233B627B68FA69B4
:102470005A6103E000233B6200E000BFBB69FF2B11
:1024800001D87B6801E07B6804337B61BB69FF2B6B
:1024900002D87B6A9B0002E07B6A083B9B003B61A1
:1024A0007B691A680F213B6901FA03F3DB431A4089
:1024B000396A3B6901FA03F31A437B691A603B6886
:1024C0005B6803F08053002B00F0B1804D4B9B699B
:1024D0004C4A43F0010393614A4B9B6903F00103AB
:1024E000BB60BB68484A7B6A9B08023352F82330C2
:1024F000FB607B6A03F003039B000F2202FA03F3E5
:10250000DB43FA681340FB607B68404A934213D078
:102510007B683F4A93420DD07B683E4A934207D086
:102520007B683D4A934201D1032306E0042304E083
:10253000022302E0012300E000237A6A02F0030292
:1025400092009340FA681343FB602F497B6A9B0813
:102550000233FA6841F823203B685B6803F4801378
:10256000002B06D02D4B9A682C49BB6913438B6016
:1025700006E02A4B9A68BB69DB43284913408B600D
:102580003B685B6803F40013002B06D0234BDA682A
:102590002249BB691343CB6006E0204BDA68BB6974
:1025A000DB431E491340CB603B685B6803F4003398
:1025B000002B06D0194B5A681849BB6913434B606E
:1025C00006E0164B5A68BB69DB43144913404B6065
:1025D0003B685B6803F48033002B21D00F4B1A68F3
:1025E0000E49BB6913430B6021E000BF00003210AD
:1025F0000000311000002210000021100000121015
:1026000000001110001002400000014000080140CD
:10261000000C014000100140001401400004014082
:102620000B4B1A68BB69DB43094913400B607B6A9B
:1026300001337B623B681A687B6A22FA03F3002B42
:102640007FF48EAE00BF00BF2C37BD4680BC704704
:102650000004014080B483B000AF78600B467B80FB
:1026600013467B707B78002B03D07A887B681A61D5
:1026700003E07B881A047B681A6100BF0C37BD46F3
:1026800080BC704780B586B000AF78607B68002B57
:1026900001D1012372E27B681B6803F00103002B68
:1026A00000F08780924B5B6803F00C03042B0CD086
:1026B0008F4B5B6803F00C03082B12D18C4B5B68CB
:1026C00003F48033B3F5803F0BD1894B1B6803F4CF
:1026D0000033002B6CD07B685B68002B68D1012332
:1026E0004CE27B685B68B3F5803F06D1804B1B688A
:1026F0007F4A43F4803313602EE07B685B68002BD5
:102700000CD17B4B1B687A4A23F480331360784BDF
:102710001B68774A23F4802313601DE07B685B68A5
:10272000B3F5A02F0CD1724B1B68714A43F4802380
:1027300013606F4B1B686E4A43F4803313600BE0E9
:102740006B4B1B686A4A23F480331360684B1B6829
:10275000674A23F4802313607B685B68002B13D0E7
:10276000FFF706FC386108E0FFF702FC02463B6910
:10277000D31A642B01D9032300E25D4B1B6803F4D9
:102780000033002BF0D014E0FFF7F2FB386108E0D3
:10279000FFF7EEFB02463B69D31A642B01D90323F2
:1027A000ECE1534B1B6803F40033002BF0D100E045
:1027B00000BF7B681B6803F00203002B63D04C4B07
:1027C0005B6803F00C03002B0BD0494B5B6803F0F4
:1027D0000C03082B1CD1464B5B6803F48033002BA1
:1027E00016D1434B1B6803F00203002B05D07B6816
:1027F0001B69012B01D00123C0E13D4B1B6823F075
:10280000F8027B685B69DB00394913430B603AE0EF
:102810007B681B69002B20D0364B01221A60FFF722
:10282000A7FB386108E0FFF7A3FB02463B69D31A18
:10283000022B01D90323A1E12D4B1B6803F00203F6
:10284000002BF0D02A4B1B6823F0F8027B685B69F1
:10285000DB00274913430B6015E0264B00221A606A
:10286000FFF786FB386108E0FFF782FB02463B6911
:10287000D31A022B01D9032380E11D4B1B6803F0FF
:102880000203002BF0D17B681B6803F00803002BC8
:102890003AD07B689B69002B19D0174B01221A6034
:1028A000FFF766FB386108E0FFF762FB02463B6911
:1028B000D31A022B01D9032360E10D4B5B6A03F0AD
:1028C0000203002BF0D0012000F0CEFA1CE00A4BEE
:1028D00000221A60FFF74CFB38610FE0FFF748FB5E
:1028E00002463B69D31A022B08D9032346E100BFF5
:1028F000001002400000424280044242924B5B6A58
:1029000003F00203002BE9D17B681B6803F004038A
:10291000002B00F0A6800023FB758B4BDB6903F0D6
:102920008053002B0DD1884BDB69874A43F08053DD
:10293000D361854BDB6903F08053BB60BB68012327
:10294000FB75824B1B6803F48073002B18D17F4BFF
:102950001B687E4A43F480731360FFF709FB3861FC
:1029600008E0FFF705FB02463B69D31A642B01D947
:10297000032303E1754B1B6803F48073002BF0D035
:102980007B68DB68012B06D16F4B1B6A6E4A43F0F4
:10299000010313622DE07B68DB68002B0CD16A4BCE
:1029A0001B6A694A23F001031362674B1B6A664A7C
:1029B00023F0040313621CE07B68DB68052B0CD159
:1029C000614B1B6A604A43F0040313625E4B1B6A4F
:1029D0005D4A43F0010313620BE05B4B1B6A5A4AEA
:1029E00023F001031362584B1B6A574A23F0040378
:1029F00013627B68DB68002B15D0FFF7B9FA3861EA
:102A00000AE0FFF7B5FA02463B69D31A41F2883271
:102A1000934201D90323B1E04B4B1B6A03F002033D
:102A2000002BEED014E0FFF7A3FA38610AE0FFF7BD
:102A30009FFA02463B69D31A41F28832934201D988
:102A400003239BE0404B1B6A03F00203002BEED1F3
:102A5000FB7D012B05D13C4BDB693B4A23F08053C6
:102A6000D3617B68DB69002B00F08780364B5B68A5
:102A700003F00C03082B61D07B68DB69022B46D185
:102A8000334B00221A60FFF773FA386108E0FFF752
:102A90006FFA02463B69D31A022B01D903236DE07A
:102AA000294B1B6803F00073002BF0D17B681B6A75
:102AB000B3F5803F08D1244B5B6823F400327B6878
:102AC0009B68214913434B601F4B5B6823F47412CE
:102AD0007B68196A7B685B6A0B431B4913434B6035
:102AE0001B4B01221A60FFF743FA386108E0FFF739
:102AF0003FFA02463B69D31A022B01D903233DE07A
:102B0000114B1B6803F00073002BF0D035E0104B25
:102B100000221A60FFF72CFA386108E0FFF728FA64
:102B200002463B69D31A022B01D9032326E0064B48
:102B30001B6803F00073002BF0D11EE07B68DB699B
:102B4000012B07D1012319E0001002400070004062
:102B5000600042420B4B5B68FB60FB6803F4803211
:102B60007B681B6A9A4206D1FB6803F470127B688B
:102B70005B6A9A4201D0012300E00023184618370F
:102B8000BD4680BD0010024080B584B000AF7860C3
:102B900039607B68002B01D10123D0E06A4B1B68B0
:102BA00003F007033A689A4210D9674B1B6823F079
:102BB000070265493B6813430B60634B1B6803F0D6
:102BC00007033A689A4201D00123B8E07B681B688A
:102BD00003F00203002B20D07B681B6803F0040382
:102BE000002B05D0594B5B68584A43F4E0635360AF
:102BF0007B681B6803F00803002B05D0534B5B6810
:102C0000524A43F460535360504B5B6823F0F00228
:102C10007B689B684D4913434B607B681B6803F0DE
:102C20000103002B40D07B685B68012B07D1474B29
:102C30001B6803F40033002B15D101237FE07B6870
:102C40005B68022B07D1414B1B6803F00073002B1C
:102C500009D1012373E03D4B1B6803F00203002BF5
:102C600001D101236BE0394B5B6823F003027B68E1
:102C70005B68364913434B60FFF77AF9F8600AE066
:102C8000FFF776F90246FB68D31A41F28832934285
:102C900001D9032353E02D4B5B6803F00C027B68E2
:102CA0005B689B009A42EBD1274B1B6803F007033C
:102CB0003A689A4210D2244B1B6823F0070222493B
:102CC0003B6813430B60204B1B6803F007033A6813
:102CD0009A4201D0012332E07B681B6803F00403B1
:102CE000002B08D0194B5B6823F4E0627B68DB683B
:102CF000164913434B607B681B6803F00803002BE5
:102D000009D0124B5B6823F460527B681B69DB00BF
:102D10000E4913434B6000F021F802460B4B5B68F1
:102D20001B0903F00F030A49CB5C22FA03F3094A9B
:102D30001360094B1B681846FFF7D8F800231846A4
:102D40001037BD4680BD00BF002002400010024089
:102D50009C960008000000200400002080B487B08A
:102D600000AF0023FB600023BB6000237B610023D6
:102D70007B6000233B611E4B5B68FB60FB6803F0DC
:102D80000C03042B02D0082B03D027E0194B3B6126
:102D900027E0FB689B0C03F00F03174AD35C7B60B2
:102DA000FB6803F48033002B10D0114B5B685B0C85
:102DB00003F00103114AD35CBB607B680D4A03FB3F
:102DC00002F2BB68B2FBF3F37B6104E07B680C4A60
:102DD00002FB03F37B617B693B6102E0054B3B61D6
:102DE00000BF3B6918461C37BD4680BC704700BF1A
:102DF0000010024000127A00B4960008C496000841
:102E000000093D0080B400AF024B1B681846BD4668
:102E100080BC70470000002080B500AFFFF7F2FFD4
:102E20000246054B5B681B0A03F007030349CB5CB2
:102E300022FA03F3184680BD00100240AC96000849
:102E400080B500AFFFF7DEFF0246054B5B68DB0A8B
:102E500003F007030349CB5C22FA03F3184680BD55
:102E600000100240AC96000880B485B000AF7860D6
:102E70000A4B1B680A4AA2FB03235B0A7A6802FB1F
:102E800003F3FB6000BFFB685A1EFA60002BF9D108
:102E900000BF00BF1437BD4680BC70470000002053
:102EA000D34D621080B582B000AF78607B68002B94
:102EB00001D1012341E07B6893F83D30DBB2002B68
:102EC00006D17B68002283F83C207868FEF700FE7C
:102ED0007B68022283F83D207B681A687B68043394
:102EE0001946104600F092F97B68012283F84620CB
:102EF0007B68012283F83E207B68012283F83F2013
:102F00007B68012283F840207B68012283F84120FE
:102F10007B68012283F842207B68012283F84320EA
:102F20007B68012283F844207B68012283F84520D6
:102F30007B68012283F83D20002318460837BD46F0
:102F400080BD000080B584B000AF786039603B6818
:102F5000002B09D17B6893F83E30DBB2012B14BF04
:102F600001230023DBB222E03B68042B09D17B68FC
:102F700093F83F30DBB2012B14BF01230023DBB2F7
:102F800015E03B68082B09D17B6893F84030DBB231
:102F9000012B14BF01230023DBB208E07B6893F808
:102FA0004130DBB2012B14BF01230023DBB2002B25
:102FB00001D001235EE03B68002B04D17B68022234
:102FC00083F83E2013E03B68042B04D17B68022287
:102FD00083F83F200BE03B68082B04D17B6802227A
:102FE00083F8402003E07B68022283F841207B685D
:102FF0001B6801223968184600F0F2FA7B681B68EA
:103000001E4A934207D17B681B685A6C7B681B6819
:1030100042F400425A647B681B68184A93420ED0FF
:103020007B681B68B3F1804F09D07B681B68144A2A
:10303000934204D07B681B68124A934211D17B688B
:103040001B689B6803F00703FB60FB68062B10D02E
:103050007B681B681A687B681B6842F001021A6073
:1030600007E07B681B681A687B681B6842F00102F6
:103070001A60002318461037BD4680BD002C014061
:10308000000400400008004080B586B000AFF86042
:10309000B9607A600023FB75FB6893F83C30012B24
:1030A00001D10223AEE0FB68012283F83C207B685B
:1030B0000C2B00F29F8001A252F823F0F13000089F
:1030C000F5310008F5310008F5310008313100080C
:1030D000F5310008F5310008F531000873310008BA
:1030E000F5310008F5310008F5310008B33100086A
:1030F000FB681B68B968184600F0EAF8FB681B68B3
:103100009A69FB681B6842F008029A61FB681B68B9
:103110009A69FB681B6822F004029A61FB681B68CD
:103120009969BB681A69FB681B680A439A6164E085
:10313000FB681B68B968184600F030F9FB681B682B
:103140009A69FB681B6842F400629A61FB681B681D
:103150009A69FB681B6822F480629A61FB681B68AD
:103160009969BB681B691A02FB681B680A439A616C
:1031700043E0FB681B68B968184600F079F9FB6802
:103180001B68DA69FB681B6842F00802DA61FB68B9
:103190001B68DA69FB681B6822F00402DA61FB68CD
:1031A0001B68D969BB681A69FB681B680A43DA6146
:1031B00023E0FB681B68B968184600F0C3F9FB6898
:1031C0001B68DA69FB681B6842F40062DA61FB681D
:1031D0001B68DA69FB681B6822F48062DA61FB68AD
:1031E0001B68D969BB681B691A02FB681B680A4324
:1031F000DA6102E00123FB7500BFFB68002283F85F
:103200003C20FB7D18461837BD4680BD80B485B094
:1032100000AF786039607B681B68FB607B68294A77
:1032200093420BD07B68B3F1804F07D07B68264A6E
:10323000934203D07B68254A934208D1FB6823F070
:103240007003FB603B685B68FA681343FB607B6854
:103250001C4A93420BD07B68B3F1804F07D07B6848
:10326000194A934203D07B68184A934208D1FB68FD
:1032700023F44073FB603B68DB68FA681343FB6030
:10328000FB6823F080023B685B691343FB607B684B
:10329000FA681A603B689A687B68DA623B681A6869
:1032A0007B689A627B68074A934203D13B681A693C
:1032B0007B681A637B6801225A6100BF1437BD46E0
:1032C00080BC7047002C0140000400400008004012
:1032D00080B487B000AF786039607B681B6A7B611F
:1032E0007B681B6A23F001027B681A627B685B685B
:1032F0003B617B689B69FB60FB6823F07003FB60AC
:10330000FB6823F00303FB603B681B68FA68134308
:10331000FB607B6923F002037B613B689B687A69F1
:1033200013437B617B681C4A93420CD17B6923F079
:1033300008037B613B68DB687A6913437B617B69C7
:1033400023F004037B617B68134A934211D13B69EC
:1033500023F480733B613B6923F400733B613B685A
:103360005B693A6913433B613B689B693A69134364
:103370003B617B683A695A607B68FA689A613B688E
:103380005A687B685A637B687A691A6200BF1C3787
:10339000BD4680BC704700BF002C014080B487B0A0
:1033A00000AF786039607B681B6A7B617B681B6A51
:1033B00023F010027B681A627B685B683B617B6864
:1033C0009B69FB60FB6823F4E043FB60FB6823F42C
:1033D0004073FB603B681B681B02FA681343FB6089
:1033E0007B6923F020037B613B689B681B017A6942
:1033F00013437B617B681D4A93420DD17B6923F0A7
:1034000080037B613B68DB681B017A6913437B6146
:103410007B6923F040037B617B68144A934213D19C
:103420003B6923F480633B613B6923F400633B61A8
:103430003B685B699B003A6913433B613B689B694E
:103440009B003A6913433B617B683A695A607B6829
:10345000FA689A613B685A687B689A637B687A6904
:103460001A6200BF1C37BD4680BC7047002C01406B
:1034700080B487B000AF786039607B681B6A7B617D
:103480007B681B6A23F480727B681A627B685B68C6
:103490003B617B68DB69FB60FB6823F07003FB60CA
:1034A000FB6823F00303FB603B681B68FA68134367
:1034B000FB607B6923F400737B613B689B681B02A4
:1034C0007A6913437B617B681D4A93420DD17B6906
:1034D00023F400637B613B68DB681B027A6913435A
:1034E0007B617B6923F480637B617B68144A934230
:1034F00013D13B6923F480533B613B6923F40053B0
:103500003B613B685B691B013A6913433B613B6864
:103510009B691B013A6913433B617B683A695A60B6
:103520007B68FA68DA613B685A687B68DA637B68B3
:103530007A691A6200BF1C37BD4680BC704700BF65
:10354000002C014080B487B000AF786039607B68A0
:103550001B6A3B617B681B6A23F480527B681A629A
:103560007B685B687B617B68DB69FB60FB6823F4DD
:10357000E043FB60FB6823F44073FB603B681B681F
:103580001B02FA681343FB603B6923F400533B6161
:103590003B689B681B033A6913433B617B680F4A96
:1035A000934209D17B6923F480437B613B685B696B
:1035B0009B017A6913437B617B687A695A607B68F7
:1035C000FA68DA613B685A687B681A647B683A6912
:1035D0001A6200BF1C37BD4680BC7047002C0140FA
:1035E00080B487B000AFF860B9607A60BB6803F060
:1035F0001F03012202FA03F37B61FB681A6A7B69ED
:10360000DB431A40FB681A62FB681A6ABB6803F066
:103610001F03796801FA03F31A43FB681A6200BFBB
:103620001C37BD4680BC704780B485B000AF786061
:1036300039607B6893F83C30012B01D1022346E0CE
:103640007B68012283F83C207B68022283F83D20BE
:103650007B681B685B68FB607B681B689B68BB6062
:10366000FB6823F07003FB603B681B68FA68134338
:10367000FB607B681B68FA685A607B681B68164AA7
:1036800093420ED07B681B68B3F1804F09D07B68F2
:103690001B68124A934204D07B681B68104A93420D
:1036A0000CD1BB6823F08003BB603B685B68BA68E1
:1036B0001343BB607B681B68BA689A607B68012211
:1036C00083F83D207B68002283F83C2000231846C5
:1036D0001437BD4680BC7047002C014000040040F8
:1036E0000008004080B582B000AF78607B68002B96
:1036F00001D1012342E07B6893F84130DBB2002B1B
:1037000006D17B68002283F840207868FEF766FACD
:103710007B68242283F841207B681B68DA687B6819
:103720001B6822F40052DA60786800F02DFE7B6896
:103730001B681A697B681B6822F490421A617B68D7
:103740001B685A697B681B6822F02A025A617B68F1
:103750001B68DA687B681B6842F40052DA607B6899
:1037600000225A647B68202283F841207B68202253
:1037700083F842207B6800225A63002318460837EA
:10378000BD4680BD80B58AB002AFF860B9603B60CD
:103790001346FB8000237B61FB6893F84130DBB26A
:1037A000202B6DD1BB68002B02D0FB88002B01D1F0
:1037B000012366E0FB6800225A64FB68212283F83B
:1037C0004120FEF7D5FB7861FB68FA889A84FB6894
:1037D000FA88DA84FB689B68B3F5805F08D1FB68E0
:1037E0001B69002B04D10023FB61BB68BB6103E0B4
:1037F000BB68FB610023BB612AE03B6800937B69E7
:1038000000228021F86800F0B6FB0346002B01D0AF
:10381000032336E0FB69002B0BD1BB691B881A46DA
:10382000FB681B68C2F308025A60BB690233BB61C4
:1038300007E0FB691A78FB681B685A60FB69013373
:10384000FB61FB68DB8C9BB2013B9AB2FB68DA84BC
:10385000FB68DB8C9BB2002BCFD13B6800937B696C
:1038600000224021F86800F086FB0346002B01D0BF
:10387000032306E0FB68202283F84120002300E0B8
:10388000022318462037BD4680BD80B58AB002AFFE
:10389000F860B9603B601346FB8000237B61FB68E6
:1038A00093F84230DBB2202B7CD1BB68002B02D0D6
:1038B000FB88002B01D1012375E0FB6800225A64CC
:1038C000FB68222283F84220FB6800221A63FEF77D
:1038D0004FFB7861FB68FA889A85FB68FA88DA857D
:1038E000FB689B68B3F5805F08D1FB681B69002B00
:1038F00004D10023FB61BB68BB6103E0BB68FB61D3
:103900000023BB6143E03B6800937B6900222021D8
:10391000F86800F030FB0346002B01D0032342E09F
:10392000FB69002B0CD1FB681B685B689BB2C3F37F
:1039300008039AB2BB691A80BB690233BB611FE0FE
:10394000FB689B68B3F5805F07D0FB689B68002B22
:103950000AD1FB681B69002B06D1FB681B685B68FA
:10396000DAB2FB691A7008E0FB681B685B68DBB2BF
:1039700003F07F03DAB2FB691A70FB690133FB6164
:10398000FB68DB8D9BB2013B9AB2FB68DA85FB6872
:10399000DB8D9BB2002BB6D1FB68202283F842203E
:1039A000002300E0022318462037BD4680BD80B4C6
:1039B00085B000AFF860B9601346FB80FB6893F8F0
:1039C0004130DBB2202B21D1BB68002B02D0FB8819
:1039D000002B01D101231AE0FB68BA681A62FB6868
:1039E000FA889A84FB68FA88DA84FB6800225A64B1
:1039F000FB68212283F84120FB681B68DA68FB68BA
:103A00001B6842F08002DA60002300E002231846BF
:103A10001437BD4680BC704780B5BAB000AF78603F
:103A20007B681B681B68C7F8E4307B681B68DB6831
:103A3000C7F8E0307B681B685B69C7F8DC3000239F
:103A4000C7F8D8300023C7F8D430D7F8E43003F0F3
:103A50000F03C7F8D830D7F8D830002B0FD1D7F8DC
:103A6000E43003F02003002B09D0D7F8E03003F056
:103A70002003002B03D0786800F0C8FB5BE2D7F886
:103A8000D830002B00F0DE80D7F8DC3003F00103E3
:103A9000002B06D1D7F8E03003F49073002B00F030
:103AA000D180D7F8E43003F00103002B0BD0D7F816
:103AB000E03003F48073002B05D07B685B6C43F02F
:103AC00001027B685A64D7F8E43003F00403002B4A
:103AD0000BD0D7F8DC3003F00103002B05D07B6856
:103AE0005B6C43F002027B685A64D7F8E43003F061
:103AF0000203002B0BD0D7F8DC3003F00103002BBE
:103B000005D07B685B6C43F004027B685A64D7F88D
:103B1000E43003F00803002B11D0D7F8E03003F0B5
:103B20002003002B05D1D7F8DC3003F00103002B74
:103B300005D07B685B6C43F008027B685A647B6845
:103B40005B6C002B00F0F281D7F8E43003F0200327
:103B5000002B08D0D7F8E03003F02003002B02D070
:103B6000786800F053FB7B681B685B6903F04003D7
:103B7000002B14BF01230023DBB2C7F8D4307B68CD
:103B80005B6C03F00803002B03D1D7F8D430002B73
:103B90004FD0786800F05DFA7B681B685B6903F0C2
:103BA0004003002B41D07B681B681433C7F89C305E
:103BB000D7F89C3053E8003FC7F89830D7F89830D2
:103BC00023F04003C7F8D0307B681B681433D7F864
:103BD000D020C7F8A820C7F8A430D7F8A410D7F889
:103BE000A82041E80023C7F8A030D7F8A030002B68
:103BF000D9D17B68DB6B002B13D07B68DB6B7E4AF3
:103C00005A637B68DB6B1846FEF728FB0346002BE4
:103C100016D07B68DB6B5B6B7A68D26B104698477B
:103C20000EE0786800F093F90AE0786800F08FF908
:103C300006E0786800F08BF97B6800225A6475E131
:103C400000BF73E17B681B6B012B40F04F81D7F8FD
:103C5000E43003F01003002B00F04881D7F8E03087
:103C600003F01003002B00F041810023BB607B6850
:103C70001B681B68BB607B681B685B68BB60BB68BC
:103C80007B681B685B6903F04003002B00F0B68083
:103C90007B68DB6B1B685B68A7F8BE30B7F8BE308B
:103CA000002B00F045817B689B8DB7F8BE209A42BF
:103CB00080F03E817B68B7F8BE20DA857B68DB6BDD
:103CC0009B69202B00F088807B681B680C33C7F849
:103CD0008830D7F8883053E8003FC7F88430D7F8E9
:103CE000843023F48073C7F8B8307B681B680C33CA
:103CF000D7F8B820C7F89420C7F89030D7F89010BC
:103D0000D7F8942041E80023C7F88C30D7F88C30DE
:103D1000002BD9D17B681B6814337B677B6F53E81A
:103D2000003F3B673B6F23F00103C7F8B4307B686B
:103D30001B681433D7F8B420C7F88020FB67F96FED
:103D4000D7F8802041E80023BB67BB6F002BE1D18F
:103D50007B681B6814333B663B6E53E8003FFB6592
:103D6000FB6D23F04003C7F8B0307B681B68143349
:103D7000D7F8B020FA66BB66B96EFA6E41E8002348
:103D80007B667B6E002BE3D17B68202283F8422088
:103D90007B6800221A637B681B680C33FB64FB6C36
:103DA00053E8003FBB64BB6C23F01003C7F8AC3092
:103DB0007B681B680C33D7F8AC20BA657B65796DDE
:103DC000BA6D41E800233B653B6D002BE3D17B6876
:103DD000DB6B1846FEF707FA7B6802225A637B68A2
:103DE0009A8D7B68DB8D9BB2D31A9BB2194678689B
:103DF00000F0B6F89CE000BF174100087B689A8D80
:103E00007B68DB8D9BB2D31AA7F8CE307B68DB8D45
:103E10009BB2002B00F08E80B7F8CE30002B00F064
:103E200089807B681B680C33BB63BB6B53E8003F26
:103E30007B637B6B23F49073C7F8C8307B681B6887
:103E40000C33D7F8C8207A643B64396C7A6C41E84B
:103E50000023FB63FB6B002BE3D17B681B681433EF
:103E60007B627B6A53E8003F3B623B6A23F00103BD
:103E7000C7F8C4307B681B681433D7F8C4203A6392
:103E8000FB62F96A3A6B41E80023BB62BB6A002B14
:103E9000E3D17B68202283F842207B6800221A63EA
:103EA0007B681B680C333B613B6953E8003FFB6058
:103EB000FB6823F01003C7F8C0307B681B680C3325
:103EC000D7F8C020FA61BB61B969FA6941E80023FB
:103ED0007B617B69002BE3D17B6802225A63B7F8D0
:103EE000CE301946786800F03BF823E0D7F8E4308C
:103EF00003F08003002B09D0D7F8E03003F08003F3
:103F0000002B03D0786800F01AF914E0D7F8E430F9
:103F100003F04003002B0ED0D7F8E03003F040034D
:103F2000002B08D0786800F059F904E000BF02E0E7
:103F300000BF00E000BFE837BD4680BD80B483B05D
:103F400000AF786000BF0C37BD4680BC704780B4BE
:103F500083B000AF786000BF0C37BD4680BC7047AF
:103F600080B483B000AF78600B467B8000BF0C3715
:103F7000BD4680BC704780B590B000AFF860B960B6
:103F80003B601346FB7150E0BB6CB3F1FF3F4CD07C
:103F9000BB6C002B07D0FDF7EBFF02463B68D31A42
:103FA000BA6C9A4241D2FB681B680C33BB62BB6A95
:103FB00053E8003F7B627B6A23F4D073FB63FB68AA
:103FC0001B680C33FA6B7A633B63396B7A6B41E89D
:103FD0000023FB62FB6A002BE5D1FB681B681433EE
:103FE0007B617B6953E8003F3B613B6923F0010340
:103FF000BB63FB681B681433BA6B3A62FB61F969F7
:104000003A6A41E80023BB61BB69002BE5D1FB683C
:10401000202283F84120FB68202283F84220FB689D
:10402000002283F8402003230FE0FB681B681A6816
:10403000BB681340BA689A420CBF01230023DBB26D
:104040001A46FB799A429FD0002318464037BD4656
:1040500080BD80B495B000AF78607B681B680C337E
:104060007B637B6B53E8003F3B633B6B23F49073B4
:10407000FB647B681B680C33FA6C3A64FB63F96B76
:104080003A6C41E80023BB63BB6B002BE5D17B6836
:104090001B6814333B623B6A53E8003FFB61FB69DA
:1040A00023F00103BB647B681B681433BA6CFA62AB
:1040B000BB62B96AFA6A41E800237B627B6A002B23
:1040C000E5D17B681B6B012B19D17B681B680C3316
:1040D000FB60FB6853E8003FBB60BB6823F0100344
:1040E0007B647B681B680C337A6CBA617B6179698D
:1040F000BA6941E800233B613B69002BE5D17B684D
:10410000202283F842207B6800221A6300BF5437C4
:10411000BD4680BC704780B584B000AF78607B68D6
:104120005B6AFB60FB680022DA85FB680022DA84A8
:10413000F868FFF70CFF00BF1037BD4680BD80B4A4
:1041400085B000AF78607B6893F84130DBB2212BFB
:104150003ED17B689B68B3F5805F14D17B681B6997
:10416000002B10D17B681B6AFB60FB681B881A461A
:104170007B681B68C2F308025A607B681B6A9A1C42
:104180007B681A6208E07B681B6A591C7A681162B6
:104190001A787B681B685A607B68DB8C9BB2013B9A
:1041A0009BB27A681946D184002B0FD17B681B68BB
:1041B000DA687B681B6822F08002DA607B681B6823
:1041C000DA687B681B6842F04002DA60002300E096
:1041D000022318461437BD4680BC704780B582B0B4
:1041E00000AF78607B681B68DA687B681B6822F028
:1041F0004002DA607B68202283F841207868FFF76C
:104200009DFE002318460837BD4680BD80B58CB0A2
:1042100000AF78607B6893F84230DBB2222B40F02D
:10422000AE807B689B68B3F5805F17D17B681B69A4
:10423000002B13D10023FB627B689B6ABB627B6807
:104240001B685B689BB2C3F308039AB2BB6A1A800F
:104250007B689B6A9A1C7B689A6226E07B689B6AF3
:10426000FB620023BB627B689B68B3F5805F07D06D
:104270007B689B68002B0AD17B681B69002B06D1E9
:104280007B681B685B68DAB2FB6A1A7008E07B68BF
:104290001B685B68DBB203F07F03DAB2FB6A1A705B
:1042A0007B689B6A5A1C7B689A627B68DB8D9BB239
:1042B000013B9BB27A681946D185002B5DD17B68A2
:1042C0001B68DA687B681B6822F02002DA607B6872
:1042D0001B68DA687B681B6822F48072DA607B688E
:1042E0001B685A697B681B6822F001025A617B686F
:1042F000202283F842207B6800225A637B681B6B74
:10430000012B35D17B6800221A637B681B680C3354
:104310007B617B6953E8003F3B613B6923F01003FD
:104320007B627B681B680C337A6A3A62FB61F969CD
:104330003A6A41E80023BB61BB69002BE5D17B6889
:104340001B681B6803F01003102B0AD10023FB60CD
:104350007B681B681B68FB607B681B685B68FB6095
:10436000FB687B689B8D19467868FFF7F9FD02E0D2
:104370007868FCF731FC002302E0002300E0022310
:1043800018463037BD4680BD80B584B000AF786038
:104390007B681B681B6923F440517B68DA687B6883
:1043A0001B680A431A617B689A687B681B691A4319
:1043B0007B685B691343BB607B681B68DB6823F425
:1043C000B05323F00C037A681268B9680B43D360CA
:1043D0007B681B685B6923F440717B689A697B6822
:1043E0001B680A435A617B681B682C4A934203D1BD
:1043F000FEF726FDF86002E0FEF70EFDF860FA68B1
:1044000013469B0013449A001A447B685B689B0028
:10441000B2FBF3F3224AA2FB03235B091901FA68FA
:1044200013469B0013449A001A447B685B689B0008
:10443000B2FBF3F21A4BA3FB02035B09642000FBFF
:1044400003F3D31A1B013233154AA2FB03235B0982
:1044500003F0F0031944FA6813469B0013449A00D2
:104460001A447B685B689B00B2FBF3F20C4BA3FB26
:1044700002035B09642000FB03F3D31A1B013233F0
:10448000074AA2FB03235B0903F00F027B681B684A
:104490000A449A6000BF1037BD4680BD0038014015
:1044A0001F85EB51002B2DE9F0471F46BBBF03F1E1
:1044B00000431F4600232D2388B01446129A109DF6
:1044C0001370149BDDF84CA023F02008B8F1460FC0
:1044D00005D0B8F1450F00D10135022300E00323D8
:1044E00007AA049206AACDE902A2CDE90035224628
:1044F0003B4601F085F8B8F1470F064602D1119B03
:10450000DB0722D5B8F1460F06EB050910D1337849
:10451000302B0AD10022002320463946FCF744FA0A
:1045200018B9C5F10105CAF80050DAF8003099440D
:104530000022002320463946FCF736FA08B1CDF8B0
:104540001C903022079B4B4507D33046079B159A9A
:104550009B1B136008B0BDE8F087591C07911A70C7
:10456000F0E70346F7B5002903F8022BB6BF2D226A
:104570002B224942092942702ADD0DF10702174614
:104580000A2691FBF6F5944606FB151430340CF818
:10459000014C0C46632C294602F1FF32F1DC30312C
:1045A000ACF1020402F8011C2246411CBA420AD3B3
:1045B0000DF10902A2EB0C02BC4288BF0022134499
:1045C000181A03B0F0BD12F8015B01F8015FEDE7C6
:1045D000302330318370C170031DF1E72DE9F04FB6
:1045E00091B00C46DDF8688016461F46054600F07F
:1045F000F3FE036818460993FBF7AAFD00230E9308
:10460000D8F800300A90073323F0070303F10802BB
:1046100094F81890D4F800B0C8F80020D3E900A8A6
:1046200052464346C4E9122328F000430B934FF04F
:10463000FF3250469C4B0B99FCF7E8F970BB4FF0EA
:10464000FF325046984B0B99FCF7C2F930BB002261
:10465000002350464146FCF7B1F910B12D2384F8F0
:104660004330924A924BB9F1470F94BF9046984617
:1046700003234FF0000A23612BF004032360334629
:104680002146284600970FAA00F0D6F9013040F0E5
:1046900090804FF0FF3011B0BDE8F08F5246434696
:1046A00050464146FCF7B2F948B1B8F1000FB8BF27
:1046B0002D23804AB8BF84F843307F4BD3E763682B
:1046C00009F0DF015A1C42D10623636000220692E2
:1046D0000EAACDE904920DAA4BF4806303920DF16A
:1046E0003302CDE9013223606368524600932846C5
:1046F00043460B91FFF7D6FE0B99804647290D994B
:1047000008D1C81C02DB6368994240DDA9F10209A7
:104710005FFA89F9B9F1650F1FD84A46013904F1EA
:1047200050000D91FFF71DFF0E9A82461318012AC3
:10473000236102DC2268D20701D5013323619DF891
:104740003330002B9BD02D2384F8433097E7472943
:10475000BCD1002BBAD10123B7E7B9F1660F18D14C
:10476000002963680BDD216113B92268D00702D5E7
:1047700001330B4423614FF0000AA165DFE713B951
:104780002268D20701D50233F4E70123F2E74FF0A4
:1047900067090E9B994205DB23682161D807EAD59A
:1047A0004B1CE7E70029CCBF0122C1F102021344F0
:1047B000E0E723685A0507D4236942463146284674
:1047C000B84701302BD164E7B9F1650F40F2DD80C5
:1047D000D4E9120100220023FCF7E6F8002833D0C8
:1047E000012331462846354AB84701303FF451AFDE
:1047F000DDE90D239A4202DB2368D8070FD5DDE9F6
:10480000092331462846B84701303FF442AF4FF004
:10481000000804F11A090E9B013B434509DC23689B
:104820009B0700F10481E0680F9B9842B8BF1846CF
:1048300031E701234A4631462846B84701303FF464
:1048400028AF08F10108E6E70D9B002B38DC0123B7
:1048500031462846194AB84701303FF41AAFDDE91E
:104860000D32134302D12368D907D8D5DDE90923D6
:1048700031462846B84701303FF40BAF4FF00009EE
:1048800004F11A0A0D9B5B424B4501DC0E9B94E739
:104890000123524631462846B84701303FF4F9AE6D
:1048A00009F10109EEE700BFFFFFEF7FC6960008A0
:1048B000CA960008CE960008D2960008D696000840
:1048C0000E9AA36D9A42A8BF1A46002A914637DC79
:1048D0004FF0000B29EAE97904F11A02D4F858A044
:1048E000AAEB09035B4533DCDDE90D239A423BDB90
:1048F0002368DA0738D4DDE90D32A2EB0309A2EB15
:104900000A029145A8BF9146B9F1000F34DC4FF07F
:10491000000829EAE97904F11A0ADDE90D239B1A56
:10492000A3EB090343457FF77AAF01235246314693
:104930002846B84701303FF4ACAE08F10108ECE777
:104940001346314642462846B8470130C0D1A0E65A
:104950000123314628460B92B84701303FF499AE07
:104960000B9A0BF1010BB9E73146DDE90923284623
:10497000B8470130BFD18CE64B463146284608EB9C
:104980000A02B8470130C2D183E60E9A012A01DC3F
:10499000DB0739D50123424631462846B847013066
:1049A0003FF477AEDDE9092331462846B8470130A8
:1049B0003FF46FAED4E9120100220023DDF83890F5
:1049C000FBF7F2FFD8B909F1FF3308F101023146D4
:1049D0002846B84701300ED15BE601234A463146EE
:1049E0002846B84701303FF454AE08F101080E9B49
:1049F000013B4345F1DC534604F15002DEE64FF043
:104A0000000804F11A09F2E701234246DFE7012317
:104A10004A4631462846B84701303FF43AAE08F1DD
:104A20000108E3680F995B1A4345F0DCFBE64FF0A1
:104A3000000804F11909F4E72DE9F04716469946F4
:104A40008A680B6907469342B8BF1346336091F8F2
:104A500043200C46DDF820800AB10133336023681F
:104A6000990642BF336802333360256815F00605A6
:104A700006D104F1190AE36832689B1AAB422BDCB9
:104A800094F84320131E226818BF0123920630D4E5
:104A90004946384604F14302C047013023D0236819
:104AA000226903F00603042B14BF002533684FF07E
:104AB000000608BFE56804F11A0408BFED1A54F8AF
:104AC000123C08BF25EAE5759342C4BF9B1AED1856
:104AD000B5421AD1002008E0012352464946384623
:104AE000C047013003D14FF0FF30BDE8F0870135FA
:104AF000C1E73020E11881F843005A1C94F84510B2
:104B00002244023382F84310C2E701232246494679
:104B10003846C0470130E6D00136D9E72DE9FF47D6
:104B20000F7E9146782F80460C469A460C9D01F1E7
:104B3000430207D8622F0AD8002F00F0D580582FE3
:104B400000F0C18004F1420584F842703AE0A7F118
:104B50006303152BF6D801A151F823F0B54B0008DB
:104B6000C94B0008454B0008454B0008454B000861
:104B7000454B0008C94B0008454B0008454B000851
:104B8000454B0008454B0008CF4C0008F54B00088A
:104B9000894C0008454B0008454B0008F14C0008C3
:104BA000454B0008F54B0008454B0008454B0008F5
:104BB000914C00082B681A1D1B682A6004F14205FD
:104BC00084F842300123A0E020682B68070603F137
:104BD0000401296001D51E6803E04606FBD5B3F940
:104BE0000060002E03DA2D23764284F843300A2336
:104BF000594812E02B682068191D2960050601D567
:104C00001E6802E04106FBD51E886F2F0CBF0823EB
:104C10000A235148002184F843106568002DA8BF7D
:104C20002168A560A4BF21F0040121600EB9002D08
:104C30004BD01546B6FBF3F103FB1167C75D05F8D2
:104C4000017D3746BB420E46F4D9082B0BD12368B1
:104C5000DE0708D5236961689942DEBF302305F875
:104C6000013C05F1FF35521B22614B46214640466F
:104C7000CDF800A003AAFFF7DFFE01304AD14FF0C4
:104C8000FF3004B0BDE8F087236843F020032360C1
:104C90007827324884F84570236829681F0651F840
:104CA000046B02D45F0648BFB6B2DF0748BF43F0CB
:104CB0002003296048BF23601EB9236823F0200326
:104CC00023601023A6E72448E4E71546BDE72B68D8
:104CD0002668181D6169286035061B6801D51960B2
:104CE00002E07006FBD51980002315462361BCE75E
:104CF0002B6800211A1D2A601D686268284600F092
:104D0000E2FB08B1401B606063682361002384F804
:104D10004330AAE72A46494640462369D047013036
:104D2000ADD023689B0713D4E068039B9842B8BFBB
:104D30001846A6E70123324649464046D04701308F
:104D40009DD00135E36803995B1AAB42F2DCEBE7D7
:104D5000002504F11906F5E7D8960008E996000841
:104D60002DE9F04F87B003938B6817465A1EB2F5B2
:104D7000AE7F85BF6FF4AE755B190023029388BFC9
:104D800040F25D138B464FF000058CBF8B600293A1
:104D90000B68804643F4F0634BF81C3B0C465E46C0
:104DA000AA46A946CDE904550195A26852B13B68CF
:104DB0001B784E2B64D8402B3CD8A3F12B01C8B2F2
:104DC0000E283AD9B9F1000F03D0236823F4807379
:104DD00023600AF1FF3ABAF1010F00F213815E4538
:104DE00000F205810125284607B0BDE8F08FA3F148
:104DF00061020D2AE6D801A151F822F03B4F0008CC
:104E0000C54D0008C54D0008C54D00089B4F000862
:104E1000734F0008C54D0008C54D0008494F0008F4
:104E2000C54D0008C54D0008C54D0008C54D00081A
:104E3000014F0008A3F14102DBE70E29C2D801A00F
:104E400050F821F0F34E0008C54D0008F34E00085D
:104E5000874F0008C54D0008A14E0008DD4E000830
:104E6000DD4E0008DD4E0008DD4E0008DD4E000876
:104E7000DD4E0008DD4E0008DD4E0008DD4E000866
:104E80006E2B09D8602BB2D8542B77D0592B99D1DF
:104E9000072D97D1082529E0742B6FD0792BF6E7E1
:104EA0002168C8051AD5029B21F08001216009F113
:104EB00001091BB1013B01320293A260A368013BCF
:104EC000A3602369013323617B68013B002B7B6076
:104ED00040F384803B6801333B6066E71AEB050FC3
:104EE0007FF470AF226822F4C072226006F8013BA2
:104EF000E4E7226810067FF565AF22F08002F4E750
:104F0000BAF1000F0ED1B9F1000F0ED1226802F4F0
:104F1000E061B1F5E06F08D122F4F0624FF0010AD0
:104F20002260E3E7BAF1020F55D0012D02D0042D23
:104F30007FF448AF0135EDB2D8E7BAF1010F7FF445
:104F400041AF4FF0020AD1E77DB9B9F1000F7FF40C
:104F50003CAF226802F4E061B1F5E06F7FF439AF55
:104F600022F4F06201252260C0E7032DE2D0052D76
:104F7000DEE7022D7FF426AF0325B7E7062D7FF489
:104F800021AF0725B2E7226891057FF51BAF22F418
:104F900020722260CDF80490A8E7226802F4A06194
:104FA000B1F5806F06D050057FF50CAFB9F1000F59
:104FB0003FF40FAF910558BF019922F4F06258BF3A
:104FC000A9EB010142F4C0724FF0000958BFCDE9CE
:104FD000041622608AE74FF0030A87E73946404605
:104FE000D4F88031984700283FF4DFAEEAE6D4F8E1
:104FF0007C313A46404616F8011D98472369013B2B
:105000002361ECE66B1E062B25D8022D36D85E45B3
:105010007FF6E8AED4F87C313A46404616F8011DDA
:1050200098472369013B2361F1E70298D4F87C316A
:1050300010F8011D3A460290404698472369013B0B
:1050400023610AF1FF3A5FFA8AFABAF1020FECD152
:10505000033DEDB2761B2368DA052FD55B0510D52D
:105060005E457FF6BFAED4F87C313A46404616F82E
:10507000011D98472369013B2361F1E7AA46029687
:10508000DFE716F8011C2369652903F1FF3306F1F8
:10509000FF3523610CD045290AD0D4F87C313A463B
:1050A00040469847236916F8021C013BB51E236150
:1050B0003A464046D4F87C3198472E46256815F08C
:1050C000100555D13570236803F4C063B3F5806FC4
:1050D0001DD1019B4B45A3EB090225D10022594666
:1050E000404602F021FC039BD4F800C01B681CF072
:1050F000020F06460F4603F1040220D003990A600E
:105100001B68C3E90067E3680133E3606BE6049B57
:10511000002BE3D005990A232A464046013102F0CC
:1051200087FC049B059EC21A04F26F139E4228BF9F
:1051300004F5B77630460F4900F0E2F8CEE71CF0F0
:10514000040FDBD1DDF80CC0CCF80020D3F80080D0
:1051500002460B46FBF75AFC28B1074800F0C2F99B
:10516000C8F80000CFE730463946FBF7ADFCF7E75B
:10517000002538E6FA9600088D9A0008002310B53D
:105180000446C0E90033C0E904338360818143668B
:10519000C2818361194608225C3000F014F90D4B7E
:1051A000246263620C4BA3620C4BE3620C4B2363DF
:1051B0000C4B9C4206D003F16802944202D0D033DB
:1051C0009C4205D104F15800BDE8104000F078B9C8
:1051D00010BD00BF41530008635300089B530008F3
:1051E000BF530008E8060020024A0349034800F0C4
:1051F00069B800BF0C000020E97D000818000020FD
:1052000041680C4B10B59942044601D002F0ECFD08
:10521000A168094B994202D0204602F0E5FDE16801
:10522000064B994204D02046BDE8104002F0DCBD98
:1052300010BD00BFE806002050070020B80700207E
:1052400010B50B4B0B4C0C4A20461A60042100226F
:10525000FFF794FF04F1680001220921FFF78EFF98
:1052600004F1D0000222BDE810401221FFF786BFF2
:1052700020080020E8060020E9510008014800F05D
:1052800020B900BF29080020014800F01BB900BF69
:105290002908002010B50446FFF7F0FF236A1BB170
:1052A000BDE81040FFF7F0BF044B2362044B1B68BE
:1052B000002BF5D1FFF7C4FFF2E700BF0152000851
:1052C000200800202DE9F8430746884614460026AA
:1052D000D4E90195B9F1010905D52468002CF7D16D
:1052E0003046BDE8F883AB89012B07D9B5F90E30FC
:1052F000013303D029463846C04706436835E9E7FD
:105300000EB46FF0004100B59CB01DAB029006904A
:10531000079104910848094953F8042B0591006846
:1053200002A9019302F0E0FB0022029B1A701CB05C
:105330005DF804EB03B07047640000200802FFFF33
:1053400010B50C46B1F90E1000F06CF80028ABBF98
:10535000636DA3891B1823F48053ACBF6365A381DD
:1053600010BD2DE9F0411F468B890546DB050C4633
:10537000164605D502230022B1F90E1000F040F8C0
:10538000A389324623F48053A38128463B46B4F9CF
:105390000E10BDE8F04100F057B810B50C46B1F959
:1053A0000E1000F02DF8431CA38915BF606523F48F
:1053B000805343F48053A38118BFA38110BDB1F97A
:1053C0000E1000F00DB803460244934200D170471E
:1053D00003F8011BF9E7000000487047580100205E
:1053E00038B50023054D044608462B60FCF7D6FC73
:1053F000431C02D12B6803B1236038BD2408002070
:1054000038B50446084611460022054D2A601A4662
:10541000FCF7E8FC431C02D12B6803B1236038BDC4
:105420002408002038B50446084611460022054DE0
:105430002A601A46FCF779FC431C02D12B6803B1A1
:10544000236038BD2408002038B5044608461146BC
:105450000022054D2A601A46FCF784FC431C02D149
:105460002B6803B1236038BD24080020014B186865
:10547000704700BF6400002070B500260C4D0D4C35
:10548000641BA410A64209D103F0C0FB00260A4DFC
:105490000A4C641BA410A64205D170BD55F8043B0C
:1054A00098470136EEE755F8043B98470136F2E796
:1054B000F09A0008F09A0008F09A0008F49A0008A0
:1054C000704770477047034610B5C9B20244934213
:1054D000184601D1002003E0047801338C42F6D154
:1054E00010BD0000004870470000C07F2DE9F74F55
:1054F00003690C690746A3427FDB013C00F11405F8
:1055000001F1140805EB8403019358F8243055F891
:10551000242001339A42B2FBF3F64FEA840B08EBE6
:10552000840931D34FF0000E4046AC46F24650F8A5
:10553000042B93B206FB03E34FEA124E1A0C9BB204
:1055400006FB0E22AAEB0303DCF800A04FEA124E82
:105550001FFA8AFA5344DCF800A092B2C2EB1A4256
:1055600002EB23429BB243EA024381454FEA224ABF
:105570004CF8043BDBD255F80B302BB9019B043BB4
:105580009D421A462DD33C61384601F0DDF90028D2
:1055900023DB29460020013658F8042BD1F800C03F
:1055A00093B2C31A120C1FFA8CF00344C2EB1C42D4
:1055B00002EB23429BB243EA0243C1454FEA224039
:1055C00041F8043BE8D255F8242005EB840322B9C6
:1055D000043B9D421A460AD33C61304603B0BDE805
:1055E000F08F1268043B002ACDD1013CC8E7126855
:1055F000043B002AF0D1013CEBE70020EEE700007D
:105600002DE9F04F16461F46C46999B00546CDE90D
:105610000467DDF8948074B9102000F01DFE024686
:10562000E86120B9EF21AC4BAC4802F055FCC0E971
:1056300001440460C460EB69196851B15A680123E0
:1056400093404A608B60284600F0FAFE0022EB6926
:105650001A603B1EAFBF0023012223F000430593D5
:10566000A8BFC8F80030DDF814909D4BB8BFC8F84B
:10567000002033EA090319D142F20F73249A136010
:10568000C9F31303334300F08985269B53B9954B27
:1056900023E0954B03930833269A1360039819B0BF
:1056A000BDE8F08F8F4B03930333F5E7DDE9043456
:1056B000CDE90C34DDE90C0100220023FBF774F97D
:1056C000804660B10123249A1360269B002B00F0D2
:1056D0006285864B269A1360013B0393DEE716AB87
:1056E000019317AB00932846DDE90C2301F03CFA47
:1056F000C9F30A548246002C7ED0DDE90C010D9BD3
:10570000A4F2FF34C3F3130343F07F5343F4401375
:10571000CDF84C8019460022754BFAF725FD68A399
:10572000D3E90023FAF7D8FE67A3D3E90023FAF7F9
:105730001DFD064620460F46FAF764FE64A3D3E932
:105740000023FAF7C9FE02460B4630463946FAF7FF
:105750000DFD06460F46FBF76FF900228346002336
:1057600030463946FBF72AF948B15846FAF74AFE5F
:1057700032463B46FBF718F908B90BF1FF3BBBF18A
:10578000160F57D8DDE90C015A4B03EBCB03D3E9D5
:105790000023FBF713F900284ED000230BF1FF3B49
:1057A0000F93169B1B1B5A1E46BFC3F10109002312
:1057B0004FF00009099248BF0993BBF1000F3DDB90
:1057C000099BCDF838B05B44099300230A93229BD0
:1057D000092B67D8052BC4BF043B2293229BC8BF6B
:1057E0000024A3F10203D8BF0124032B00F286801A
:1057F000DFE803F02C393756DDE916431C4404F288
:105800003243202BC1BFC3F1400309FA03F904F26C
:10581000124326FA03F3D6BFC3F1200349EA03007B
:1058200006FA03F0FAF7DEFD0122A1F1F873013C5C
:1058300013926FE70123B3E70F90B2E7CBF10003B8
:105840000A930023A9EB0B090E93C0E700230B93E7
:10585000239B002B55DC01231A46069308932392C1
:105860000BE00123F3E700230B93239B5B44069398
:105870000133012B0893B8BF012300210422E869FA
:1058800002F114069E4240D94160284600F098FD7E
:10589000039000283CD1024640F2AF11164BC3E6FC
:1058A0000123E1E7012400230B9422934FF0FF33FF
:1058B0000022069308931223D1E700BFAFF30080C4
:1058C00061436F63A787D23FB3C8608B288AC63F06
:1058D000FB799F501344D33F0C970008239700088F
:1058E0000000F07F08970008FF960008D796000890
:1058F0000000F83F109800087B97000801230B93E5
:10590000D4E7239B06930893B7E701315200B7E72A
:10591000EB69039A1A60089B0E2B00F2A880002CFA
:1059200000F0A580BBF1000F34DD9A4B0BF00F02A5
:1059300003EBC2031BF4807FD3E90034CDE91034BC
:105940004FEA2B1416D0DDE90C01934B0327D3E962
:105950000823FAF7EBFECDE9040104F00F048E4EA4
:1059600054B9DDE91023DDE90401FAF7DFFECDE9E2
:10597000040129E00227F2E7E10708D5DDE910017B
:10598000D6E90023FAF7A8FDCDE91001013764102C
:105990000836E5E700F0A580DDE90C01CBF1000455
:1059A0007C4B04F00F0203EBC203D3E90023FAF7A8
:1059B00093FD02270023CDE90401774E2411002C2A
:1059C00040F08480002BD2D1DDE90434CDE91034DD
:1059D0000F9B002B00F08780DDE9100100226F4B48
:1059E000FAF7ECFF00287ED0089B002B7BD0069BAB
:1059F000002B38DDDDE910010022694BFAF76CFD60
:105A0000CDE90401069C0BF1FF3801373846FAF75F
:105A1000F9FCDDE90423FAF75FFD0022614BFAF798
:105A2000A5FBA1F15076CDE910011196002C5DD1B6
:105A3000DDE9040100225C4BFAF796FB02460B46B7
:105A4000CDE904233346109AFAF7D6FF002840F038
:105A50009582DDE90401109A06F10043FAF7AEFFE2
:105A6000002840F08982DDE90C34CDE90434179B2D
:105A7000002BC0F25181BBF10E0F00F34D81454B5D
:105A800003EBCB03D3E90034CDE90634239B002B91
:105A900080F2DA80089B002B00F3D68040F06B8206
:105AA000DDE906010022404BFAF716FDDDE904238B
:105AB000FAF798FF089C2646002840F041823123DF
:105AC000039F0BF1010B07F8013B3DE2E20705D50F
:105AD000D6E90023FAF700FD0123013764100836E8
