:020000040800F2
:1000000000500020990900087D0500087F050008C0
:100010008105000883050008850500080000000030
:10002000000000000000000000000000870500083C
:1000300089050008000000008B0500088D050008F8
:10004000E1090008E1090008E1090008E1090008E8
:10005000E1090008E1090008E1090008E1090008D8
:10006000E1090008E1090008E1090008E1090008C8
:10007000E1090008E1090008E1090008E1090008B8
:10008000E1090008E1090008E1090008E1090008A8
:10009000E1090008E1090008E1090008E109000898
:1000A000E1090008E1090008E1090008E109000888
:1000B00091050008E1090008E1090008E1090008CC
:1000C000E1090008E1090008E1090008E109000868
:1000D000E10900089D050008E1090008E1090008A0
:1000E000E1090008E1090008E1090008000000003A
:1000F0000000000000000000000000000000000000
:0C01000000000000000000005FF808F1A3
:10010C0010B5054C237833B9044B13B10448AFF345
:10011C0000800123237010BD0C00002000000000A3
:10012C00F01E000808B5034B1BB103490348AFF39D
:10013C00008008BD0000000010000020F01E000828
:10014C0010222DE9F04188B00DEB0200002101F0E6
:10015C009DFE294BDFF8A4809A69294C42F01002CD
:10016C009A619A69404602F010020092009A9A69CC
:10017C0048F2100142F020029A619A69012702F0BC
:10018C0020020192019A9A69002642F004029A61B7
:10019C009A69022502F004020292029A9A6942F0CC
:1001AC0008029A619B69002203F008030393039BE6
:1001BC0000F012FE20460022382100F00DFE012234
:1001CC0020464FF4807100F007FE48F210034046C1
:1001DC0004A9CDE90437CDE9066500F023FD4FF401
:1001EC009C73204604A9CDE90437CDE9066500F0DF
:1001FC0019FD08B0BDE8F081001002400008014074
:10020C00000C014010B590B01422002108A801F098
:10021C003DFE1422002101A801F038FE02244FF407
:10022C0080330122CDE90D43CDE906234FF4E013D1
:10023C0006A80A920F9300F0D5FD08B172B6FEE73E
:10024C000F23CDE901344FF480630390CDE90430E2
:10025C00214601A800F088FF08B172B6FEE710B085
:10026C0010BD000068B1B42828BFB42064225043EC
:10027C005A22B0FBF2F0044B32301B6880B2586348
:10028C0070470520F2E700BFB804002010B52A4CD7
:10029C0000F0C6FBFFF7B6FFFFF752FF00F03AFA8B
:1002AC0000F07EFA00F0C4FA00F0DEFA00F078F903
:1002BC0000F0C2F800F0ACF800F09AF800212046EB
:1002CC0001F06AFB0421204601F066FB00211B486B
:1002DC0001F062FB0421194801F05EFB184801F0A3
:1002EC0073F8962223684FF480715A638A2215485A
:1002FC009A63012200F070FD5A240023812C0BDC40
:10030C00BBB90A34A0B2FFF7ADFFC82000F0ACFBBC
:10031C00822C03D00023F1E7002BEFD00A3CA0B2D3
:10032C00FFF7A0FFC82000F09FFB322CE9D001237F
:10033C00E4E7322CE2DDF1E7B80400207004002081
:10034C0028040020000C014072B6FEE770B50A4686
:10035C00044601B101224FF40041124800F03CFD6B
:10036C000825114E002220210F4800F035FD2306F0
:10037C004CBF012200221021304600F02DFD013D22
:10038C0001222021304600F027FD640015F0FF0506
:10039C00E4B2E7D1BDE8704001224FF400410148BE
:1003AC0000F01ABD00080140000C014070B5B024EB
:1003BC000E4E00212046FFF7C9FF00210846FFF72B
:1003CC00C5FF00211020FFF7C1FF002516F83500EE
:1003DC0001210135FFF7BAFF802DF7D10134E4B2CA
:1003EC00B82C06F10106E4D170BD00BF2800002036
:1003FC0008B500218D20FFF7A9FF00211420FFF77D
:10040C00A5FFBDE808400021AF20FFF79FBF00000B
:10041C00002310B41C4607480022C11801F83240D2
:10042C000132802AFAD10133082BF5D110BCFFF729
:10043C00BDBF00BF2800002010B53B4C0022082196
:10044C00204600F0C9FC642000F00EFB012220467F
:10045C00082100F0C1FC0021AE20FFF777FF00213E
:10046C00D520FFF773FF00215020FFF76FFF00210D
:10047C00A820FFF76BFF00213F20FFF767FF00214B
:10048C00D320FFF763FF00210846FFF75FFF002131
:10049C004020FFF75BFF00218D20FFF757FF002165
:1004AC001420FFF753FF00212020FFF74FFF0021FE
:1004BC000220FFF74BFF0021A120FFF747FF00218F
:1004CC00C020FFF743FF0021DA20FFF73FFF002198
:1004DC001220FFF73BFF00218120FFF737FF00219F
:1004EC00EF20FFF733FF0021D920FFF72FFF00216A
:1004FC00F120FFF72BFF0021DB20FFF727FF002166
:10050C003020FFF723FF0021A420FFF71FFF00215D
:10051C00A620FFF71BFF0021AF20FFF717FFBDE858
:10052C001040FFF775BF00BF000C01400E4B82B0AE
:10053C009A6942F001029A619A6902F001020092F2
:10054C00009ADA6942F08052DA61DB69074A03F0FB
:10055C0080530193019B536823F0E06343F00073D5
:10056C00536002B0704700BF001002400000014011
:10057C00FEE7FEE7FEE7FEE7FEE7704770477047D1
:10058C0000F060BA014800F04EBF00BF2804002004
:10059C00014801F031BB00BF00050020704700008E
:1005AC007FB51022002102A801F070FC41F61F4219
:1005BC004FF0804114480023C0E9001241F2873209
:1005CC00CDE90033C0E9032383608023836101F00C
:1005DC0005F808B1FFF7B8FE4FF480530A4802A99A
:1005EC00029301F0E2F808B1FFF7AEFE0023694672
:1005FC000548CDE9003301F0D1F908B1FFF7A4FEAD
:10060C0007B05DF804FB00BF28040020036807B5A1
:10061C00B3F1804F15D103F50433DA691C2042F095
:10062C000102DA610022DB69114603F00103019338
:10063C00019B00F03DFA1C2003B05DF804EB00F0C8
:10064C0067BA03B05DF804FB03680F4A82B09342AB
:10065C000BD10E4BDA6942F00202DA61DB6903F06E
:10066C0002030093009B02B07047094A9342FAD1EF
:10067C00064BDA6942F00402DA61DB6903F0040329
:10068C000193019BEFE700BF000400400010024003
:10069C000008004010B5044686B01022002102A8C4
:1006AC0001F0F4FB2368164A934214D1154BC02178
:1006BC009A69154842F004029A619B6903F004039D
:1006CC000093009B0223CDE90213059302A900F0CD
:1006DC00A9FA06B010BD0D4A9342FAD1094B0C4849
:1006EC009A6902A942F008029A619B69C02203F040
:1006FC0008030193019B0223CDE902230593E6E74E
:10070C0000040040001002400008014000080040B6
:10071C00000C014010B500248AB021461C2203A80D
:10072C00CDE9014401F0B2FB40F2CF231A481B493A
:10073C008460C0E9001340F2CF73C0E90334802316
:10074C00836100F077FF08B1FFF7FEFD124801A9A5
:10075C00CDE9014401F022F908B1FFF7F5FD602263
:10076C0040F2DC53CDE9032300220B4803A9059288
:10077C00079200F0B7FF08B1FFF7E6FD0422064828
:10078C0003A900F0AFFF08B1FFF7DEFD0248FFF749
:10079C0081FF0AB010BD00BF7004002000040040AF
:1007AC0010B500248AB021461C2203A8CDE90144CF
:1007BC0001F06CFB40F2CF231B481C498460C0E95C
:1007CC00001340F2CF73C0E903348023836100F03F
:1007DC0031FF08B1FFF7B8FD134801A9CDE9014479
:1007EC0001F0DCF808B1FFF7AFFD0024602240F205
:1007FC00DC530D48CDE9032303A922460594079445
:10080C0000F070FF08B1FFF79FFD0422064803A912
:10081C00049400F067FF08B1FFF796FD0248FFF75C
:10082C0039FF0AB010BD00BFB8040020000800401A
:10083C0008B54FF4E1330A480A4AC0E90023002303
:10084C000C22C0E90233C0E905230361C36101F046
:10085C003DF918B1BDE80840FFF776BD08BD00BFF3
:10086C00000500200038014008B54FF416530A4823
:10087C000A4AC0E9002300230C22C0E90233C0E974
:10088C0005230361C36101F021F918B1BDE80840EB
:10089C00FFF75ABD08BD00BF4805002000480040C6
:1008AC00102210B5044688B00DEB0200002101F0B7
:1008BC00EDFA2368304A934231D1304B4FF400703B
:1008CC009A6904A942F480429A619A69002402F45C
:1008DC0080420092009A9A6942F004029A619B69E4
:1008EC0003F004030193019B0223CDE904030323CA
:1008FC002348079300F096F94FF48063204804A92D
:10090C00CDE90434069400F08DF92520224601210E
:10091C0000F0CEF8252000F0FBF808B010BD194A05
:10092C009342FAD1154B04A9DA69174842F4802294
:10093C00DA61DA6902F480220292029A9A6942F030
:10094C0008029A619B694FF4806203F008030393D9
:10095C00039B0223CDE904230323079300F062F9E0
:10096C0000234FF400610848CDE9041304A9069351
:10097C0000F058F9D1E700BF0038014000100240E8
:10098C000008014000480040000C0140FFF706FE43
:10099C000B480C490C4A002302E0D458C4500433D1
:1009AC00C4188C42F9D3094A094C002301E01360A6
:1009BC000432A242FBD301F071FAFFF767FC7047D7
:1009CC00000000200C0000203C1F00080C00002040
:1009DC0094050020FEE7000038B50E4B05461A784A
:1009EC004FF47A73B3FBF2F30B4A1068B0FBF3F0DD
:1009FC0000F09CF8044658B90F2D09D80246294638
:100A0C004FF0FF3000F054F82046044B1D6038BD09
:100A1C000120FCE70400002000000020080000205A
:100A2C00074A08B51368032043F01003136000F065
:100A3C002DF80F20FFF7D0FFFFF778FD002008BD41
:100A4C0000200240034A044B11681B780B441360CE
:100A5C00704700BF9005002004000020014B18686F
:100A6C00704700BF9005002038B50446FFF7F6FF2D
:100A7C000546631C1EBF044B1B78E418FFF7EEFF02
:100A8C00431BA342FAD338BD0400002007490302DC
:100A9C00CA6803F4E06322F4E0621204120C1343FC
:100AAC0043F0BF6343F40033CB60704700ED00E0CC
:100ABC00154B30B5DC68C4F30224C4F10703251DC3
:100ACC00042B28BF0423062D4FF0FF3594BF0024C0
:100ADC00033C05FA03F321EA0303A54022EA0502CD
:100AEC00A340002843EA0203ACBF00F16040074A70
:100AFC004FEA0313DBB2ABBF00F5614000F00F000F
:100B0C0080F80033135430BD00ED00E014ED00E02C
:100B1C00002807DB01234109034A00F01F00834032
:100B2C0042F82130704700BF00E100E00138B0F11D
:100B3C00807F0BD24FF0E023F021054A586182F8F8
:100B4C0023100020072298611A617047012070471A
:100B5C0000ED00E090F821200346022A06D0042282
:100B6C0082630120002283F8202070470268C06B4A
:100B7C00116821F00E011160116821F00101116062
:100B8C0001211A6C01FA02F24260002083F8211054
:100B9C00E8E7000010B590F82130022B03D00423B5
:100BAC008363012010BD03681A6822F00E021A60DC
:100BBC001A6822F001021A60184A93421FD01432AC
:100BCC0093421ED0143293421DD0143293421DD046
:100BDC00143293421DD0143293420CBF4FF4801345
:100BEC004FF080730E4A00245360012380F82130AB
:100BFC00436B80F820407BB198472046D2E7012315
:100C0C00F0E71023EEE74FF48073EBE74FF48053DB
:100C1C00E8E74FF48033E5E71846C3E708000240E5
:100C2C00000002402DE9F74F00221646644F654B39
:100C3C00DFF894C1DFF894E10D6835FA06F402D1BF
:100C4C0003B0BDE8F08F4FF0010808FA06F805EA8A
:100C5C00080438EA05057AD14D68032D07D8013D03
:100C6C00022D00F28780DFE805F0959AA000122D86
:100C7C0000F098806DD8112D00F08E80FF2C98BF5D
:100C8C0082464FF00F0988BF00F1040A4FEA86052F
:100C9C00DAF8008088BF203D09FA05FB28EA0B082A
:100CAC0002FA05F548EA0505CAF80050D1F804A087
:100CBC001AF0805F4BD0BD6926F0030845F00105A2
:100CCC00BD61BD6908F1804805F00105019508F585
:100CDC00803806F0030B019D4FEA8B0BD8F80850B7
:100CEC0009FA0BF925EA0909394DA84261D005F535
:100CFC008065A8425FD005F58065A8425DD005F5FA
:100D0C008065A8420CBF0325042505FA0BF545EABE
:100D1C000905C8F808509D681AF4801F14BF2543B4
:100D2C00A5439D60DD681AF4001F14BF2543A5433D
:100D3C00DD605D681AF4003F14BF2543A5435D6078
:100D4C001D681AF4803F14BF2543A5431D6001366E
:100D5C0072E7DFF880904D450CD017D8A9F58019B3
:100D6C004D4507D009F570294D4503D0A9F58019DB
:100D7C004D4583D18A68D2B1012A08BFC0F81080D2
:100D8C004FF0080218BFC0F8148077E76545F1D022
:100D9C007545EEE7CA6871E7CA6804326EE7CA683F
:100DAC0008326BE7CA680C3268E7002266E7042257
:100DBC0064E70025A9E70125A7E70225A5E700BF01
:100DCC0000100240000401400000311000003210FD
:100DDC0000080140000022100AB1016170470904AB
:100DEC00FBE700002DE9F341054638B30368DB0748
:100DFC0010D42B689F075ED42B68190700F19580DF
:100E0C002B685A0700F1C180E869002840F02C815A
:100E1C00002029E0904C636803F00C03042B07D0EE
:100E2C00636803F00C03082B0AD16368DE0307D553
:100E3C0023689C03DDD56B68002BDAD1012013E00D
:100E4C006B68B3F5803F12D1236843F48033236081
:100E5C00FFF704FE064623689803CAD4FFF7FEFD8D
:100E6C00801B6428F7D9032002B0BDE8F0819BB940
:100E7C00236823F480332360236823F480232360C6
:100E8C00FFF7ECFD064623689903B2D5FFF7E6FDA4
:100E9C00801B6428F7D9E6E7B3F5A02F236803D1AC
:100EAC0043F480232360CFE723F48033236023684B
:100EBC0023F48023CBE7684C636813F00C0F07D046
:100ECC00636803F00C03082B10D16368DA030DD4AC
:100EDC0023689B0702D52B69012BAFD123686A6964
:100EEC0023F0F80343EAC203236085E72A695B4BCE
:100EFC006AB101221A60FFF7B1FD064623689F070D
:100F0C00ECD4FFF7ABFD801B0228F7D9ABE71A60D6
:100F1C00FFF7A4FD0646236898077FF56DAFFFF732
:100F2C009DFD801B0228F6D99DE7AA694A4E4B4BC2
:100F3C00E2B10122C3F88024FFF790FD0446736AE6
:100F4C009B070DD54FF4FA52454B1B68B3FBF2F3DC
:100F5C00019300BF019B5A1E0192002BF9D14FE760
:100F6C00FFF77CFD001B0228E9D97CE7C3F880243D
:100F7C00FFF774FD0446736A9F077FF541AFFFF7D7
:100F8C006DFD001B0228F6D96DE7334CE369D800E0
:100F9C0024D40127E36943F08053E361E36903F050
:100FAC0080530093009B2F4E3368D90518D5EB68FE
:100FBC00012B26D1236A43F001032362FFF74EFD78
:100FCC0041F288380646236A9B073FD5002F3FF431
:100FDC001BAFE36923F08053E36115E70027E2E7D9
:100FEC00336843F480733360FFF738FD8046336811
:100FFC00DA05DCD4FFF732FDA0EB08006428F6D943
:10100C0031E7ABB9236A41F2883823F0010323623C
:10101C00236A23F004032362FFF720FD0646236AAC
:10102C009807D3D5FFF71AFD801B4045F7D91AE76F
:10103C00052B236A03D143F004032362BAE723F0A0
:10104C0001032362236A23F00403B6E7FFF706FDCE
:10105C00801B4045B7D906E7001002400000424211
:10106C0000000020007000402A4C636803F00C0361
:10107C00082B3ED00022284B02281A662CD1FFF7F1
:10108C00EDFC06462368990120D42B6AB3F5803F0A
:10109C0005D16268A96822F400320A436260696A69
:1010AC0062680B4322F474121343012263601A4BDF
:1010BC001A66FFF7D3FC054623689A013FF5A8AEE4
:1010CC00FFF7CCFC401B0228F6D9CCE6FFF7C6FC98
:1010DC00801B0228D6D9C6E6FFF7C0FC054623685C
:1010EC009B017FF595AEFFF7B9FC401B0228F6D9A2
:1010FC00B9E601283FF4B8AE63682A6A03F480317C
:10110C0091427FF49BAE6A6A03F4701393423FF4EE
:10111C007FAE93E600100240000042420D4A536835
:10112C0003F00C01082912D10B48C3F38341DB03F4
:10113C00405C09D55368094AC3F340435043084AFD
:10114C00D35CB0FBF3F07047064B58437047034831
:10115C00704700BF00100240201F000800127A00E8
:10116C00301F000800093D002DE9F0410D460446F2
:10117C0010B90120BDE8F081444A136803F007035D
:10118C008B4228D321688E0730D4CA0743D43F4AF8
:10119C00136803F00703AB4265D822683C4D12F08C
:1011AC00040F6CD1130706D56B68226923F46053C6
:1011BC0043EAC2036B60FFF7B1FF6B68354AC3F3B8
:1011CC000313D35CD840344B1860344B1868FFF7CA
:1011DC0003FC0020CEE7136823F007030B431360D6
:1011EC00136803F007038B42C3D1CBE7284B11F0F4
:1011FC00040F1EBF5A6842F4E0625A60080742BFEF
:10120C005A6842F460525A605A68A06822F0F002A0
:10121C0002435A60B9E762681D4E012A33681AD13D
:10122C0013F4003FA5D0736841F2883823F0030310
:10123C0013437360FFF712FC07467368626803F090
:10124C000C03B3EB820FA2D0FFF708FCC01B404588
:10125C00F3D903208EE7022A02D113F0007FE1E7D5
:10126C0013F0020FDEE7136823F007032B43136020
:10127C00136803F00703AB427FF47BAF8DE76B6819
:10128C00E16823F4E0630B436B608BE700200240C2
:10129C0000100240081F0008000000200800002079
:1012AC00044B054A5B68C3F30223D35C034A106802
:1012BC00D840704700100240181F000800000020A2
:1012CC00044B054A5B68C3F3C223D35C034A106822
:1012DC00D840704700100240181F00080000002082
:1012EC00036A026A70B522F00102026244688269E4
:1012FC000D6822F073022A438D6823F002032B43FE
:10130C000A4DA8420BD1CD6823F008032B4324F4DB
:10131C004074D1E90556354323F004032C43446053
:10132C0082614A684263036270BD00BF002C0140B9
:10133C00036A026A70B522F4807202624468C26960
:10134C000D6822F073022A438D6823F4007343EA7C
:10135C0005230B4DA8420DD1CD6823F4006343EA5D
:10136C00052324F44054D1E90556354323F4806316
:10137C0044EA05144460C2614A68C263036270BDEA
:10138C00002C0140036A026A30B522F480520262DA
:10139C004468C2690D6822F4E64242EA05228D686F
:1013AC0023F4005343EA0533064DA84202BF4D69AE
:1013BC0024F4804444EA85144460C2614A6802649F
:1013CC00036230BD002C014090F83D30012B20D140
:1013DC00022380F83D300368DA6842F00102DA60DB
:1013EC000D4A93420AD0B3F1804F07D0A2F5943244
:1013FC00934203D002F58062934204D19A6802F0C2
:10140C000702062A03D01A6842F001021A60002073
:10141C0070470120704700BF002C01407047704797
:10142C00704770477047036810B51A6904469107F6
:10143C000ED5DA6892070BD56FF002021A61012201
:10144C0002779B699B0777D0FFF7EAFF002323778E
:10145C0023681A69500710D5DA6851070DD56FF05B
:10146C0004021A61022222779B69204613F4407F02
:10147C0068D0FFF7D5FF0023237723681A6912077A
:10148C000FD5DA6810070CD56FF008021A61042228
:10149C002277DB69204699075AD0FFF7C1FF00235A
:1014AC00237723681A69D20610D5DA68D0060DD5D1
:1014BC006FF010021A6108222277DB69204613F4C0
:1014CC00407F4BD0FFF7ACFF0023237723681A69CA
:1014DC00D10708D5DA68D20705D56FF0010220468E
:1014EC001A61FFF79BFF23681A69100608D5DA68A2
:1014FC00110605D56FF0800220461A6100F07DFAC6
:10150C0023681A69520608D5DA68500605D56FF0BB
:10151C00400220461A61FFF785FF23681A6991067D
:10152C0022D5DA6892061FD56FF020022046BDE85E
:10153C0010401A6100F060BAFFF771FF2046FFF708
:10154C0070FF83E7FFF76BFF2046FFF76AFF92E718
:10155C00FFF765FF2046FFF764FFA0E7FFF75FFF8B
:10156C002046FFF75EFFAFE710BD00001A4A036884
:10157C0090420AD0B0F1804F07D0A2F5943290423D
:10158C0003D002F58062904215D14A6823F07003B3
:10159C001343114A90420AD0B0F1804F07D0A2F504
:1015AC009432904203D002F58062904203D1CA6813
:1015BC0023F4407313434A6923F0800313430360FD
:1015CC008B68C3620B688362034B984204BF0B6940
:1015DC000363012343617047002C014010B504469E
:1015EC0030B390F83D3003F0FF021BB980F83C207B
:1015FC00FFF70CF80223206884F83D30211DFFF71B
:10160C00B5FF0123002084F8463084F83E3084F87E
:10161C003F3084F8403084F8413084F8423084F80C
:10162C00433084F8443084F8453084F83D3010BDA4
:10163C000120FCE710B5044630B390F83D3003F0C0
:10164C00FF021BB980F83C20FEF7FEFF0223206846
:10165C0084F83D30211DFFF789FF0123002084F819
:10166C00463084F83E3084F83F3084F8403084F8BB
:10167C00413084F8423084F8433084F8443084F8A4
:10168C00453084F83D3010BD0120FCE7036A026A46
:10169C0070B522F010020262446882690D6822F46F
:1016AC00E64242EA05228D6823F0200343EA051343
:1016BC000B4DA8420DD1CD6823F0800343EA0513EE
:1016CC0024F44064D1E90556354323F0400344EA41
:1016DC008504446082614A688263036270BD00BF06
:1016EC00002C014070B590F83C300546012B50D0D1
:1016FC000123082A80F83C303BD007D8C2B1042A19
:10170C0027D01846002385F83C3070BD0C2AF8D140
:10171C000068FFF737FEC3690A6943F40063C361CD
:10172C00C36923F48063C361C36943EA02232EE0D7
:10173C000068FFF7D5FD83690A6943F008038361EC
:10174C00836923F00403836183691343836100205D
:10175C00D8E70068FFF79AFF83690A6943F40063CE
:10176C008361836923F480638361836943EA022381
:10177C00ECE70068FFF7DCFDC3690A6943F0080376
:10178C00C361C36923F00403C361C3691343C36119
:10179C00DDE70220B9E710B584680A4324F47F44DE
:1017AC0042EA03222243826010BD38B590F83C30E7
:1017BC000446012B4FF0020000F08E80012284F8C9
:1017CC003D00206884F83C20836823F47F4323F099
:1017DC00770383600B68602B4FD032D8402B64D0DA
:1017EC0016D8202B0DD00AD833F0100109D00123C4
:1017FC0084F83D30002384F83C30104638BD302B43
:10180C00F5D1826822F07002134343F0070328E0FD
:10181C00502BECD14A68CD68016A036A21F00A01A9
:10182C0023F00103036283690A4323F0F00343EAC4
:10183C00051383610262836823F0700343F057033E
:10184C000FE0B3F5805F0DD0B3F5005F0CD0702BBB
:10185C00CDD1CB68D1E90121FFF79DFF836843F01F
:10186C00770383600022C2E7CB68D1E90121FFF73F
:10187C0092FF836843F48043F3E7036A026A4D687E
:10188C0022F01002C9680262826923F0A00322F4DC
:10189C00704243EA051342EA0132826103628368B3
:1018AC0023F0700343F06703DBE74A68CD68016AF5
:1018BC00036A21F00A0123F00103036283690A43DE
:1018CC0023F0F00343EA051383610262836823F07B
:1018DC00700343F04703C4E702468EE710B50124BA
:1018EC00036A01F01F018C4023EA04030362036ABC
:1018FC008A401A43026210BD08B529B990F83E30EF
:10190C00012B21D0012008BD042907D190F83F30CC
:10191C00012BF7D1022380F83F3018E0082907D1BA
:10192C0090F84030012BEDD1022380F840300EE0CE
:10193C0090F84130012BE5D10429EBD00829F3D0E4
:10194C00022380F8413002E0022380F83E30006828
:10195C000122FFF7C3FF0E4B98420AD1436C43F4AC
:10196C0000434364836803F00703062B0BD100206C
:10197C00C9E7B0F1804FF5D0064B9842F2D003F591
:10198C0080639842EED0036843F001030360EEE7F6
:10199C00002C014000040040FFF7AEBF30B590F8BA
:1019AC003C300246012B4FF0020022D0136882F823
:1019BC003D005C680D6824F070042C4398685C60F2
:1019CC000C4CA3420AD0B3F1804F07D0A4F5943449
:1019DC00A34203D004F58064A34204D1496820F0EB
:1019EC008000014399600123002082F83D3082F889
:1019FC003C0030BD002C014070477047026802F17A
:101A0C000C0353E8003F23F490730C3242E800318E
:101A1C0002680029F2D102F1140353E8003F23F0CD
:101A2C00010302F1140C4CE800310029F3D1036BD3
:101A3C00012B0BD102F10C0353E8003F23F01003F0
:101A4C0002F10C0C4CE800310029F3D1202380F872
:101A5C00423000230363704710B504460368C16825
:101A6C001A6922F440520A431A6182680069D968E3
:101A7C000243606921F4B05121F00C0102430A4386
:101A8C00DA605A69A16922F440720A435A610E4A1B
:101A9C00934215D1FFF714FC192343436268206865
:101AAC009200B3FBF2F36422B3FBF2F102FB1133AD
:101ABC001B013233B3FBF2F303EB0113836010BD54
:101ACC00FFF7EEFBE8E700BF0038014010B5044615
:101ADC0048B390F8413003F0FF021BB980F8402066
:101AEC00FEF7DEFE2423226884F84130D3682046BA
:101AFC0023F40053D360FFF7AFFF236800201A696B
:101B0C0022F490421A615A6922F02A025A61DA6868
:101B1C0042F40052DA602023606484F8413084F887
:101B2C004230606310BD0120FCE77047704770477E
:101B3C0008B50023406AC385C384FFF7F8FF08BDCE
:101B4C00704790F8423007B5222B42D18168836AE6
:101B5C00B1F5805F02683FD1016900293FD152681D
:101B6C00C2F3080223F8022B8362C38D013B9BB2A4
:101B7C00C385002B2DD10268D16821F02001D160E2
:101B8C00D16821F48071D160516921F0010151615A
:101B9C00202280F842204363026B012A026828D17C
:101BAC00036302F10C0353E8003F23F0100302F12E
:101BBC000C0C4CE800310029F3D11368DB0605D579
:101BCC0001911368019353680193019B818DFFF779
:101BDC00B7FF03B05DF804FB39B9016929B9526844
:101BEC00D2B21A70836A0133BEE7526802F07F02E8
:101BFC00F7E7FFF79BFFECE7036873B51A68044639
:101C0C001607D9685D6908D1960668D58D0666D524
:101C1C0002B0BDE87040FFF794BF05F0010001F47D
:101C2C00907505435BD0D60705D5CD0542BF636CD7
:101C3C0043F001036364530704D518B1636C43F09C
:101C4C0002036364960704D518B1636C43F0040374
:101C5C006364150707D501F0200303431EBF636CB3
:101C6C0043F008036364636C002B32D0920604D5F6
:101C7C008B0602D52046FFF764FF26682046736961
:101C8C00626C03F0400302F0080253EA020522D012
:101C9C00FFF7B4FE73695E0618D5226802F11403CF
:101CAC0053E8003F23F04003143242E8003100298E
:101CBC00F3D1E06B50B1744B4363FEF76BFF40B153
:101CCC00E06B436B02B0BDE8704018472046FFF74D
:101CDC002EFF02B070BDFFF72AFF6564F9E7206B99
:101CEC00012840F09480D50640F19180C80640F15F
:101CFC008E80002201921A6801925A680192019A10
:101D0C005A6952064DD5E16B0A68526892B2002AA4
:101D1C00DFD0A08D9042DCD9E2858A69202A36D0AA
:101D2C0003F10C0252E8002F22F4807203F10C0034
:101D3C0040E800210029F3D103F1140252E8002FEE
:101D4C0022F0010203F1140040E800210029F3D134
:101D5C0003F1140252E8002F22F0400203F11400A8
:101D6C0040E800210029F3D1202284F8422021638D
:101D7C0003F10C0252E8002F22F0100203F10C00C8
:101D8C0040E800210029F3D1E06BFEF7E3FE0223CB
:101D9C006363E38DA18DC91A89B22046FFF7D0FE8B
:101DAC0097E7E28DE08DA18D80B292B2002890D0A1
:101DBC00891A89B200298CD003F10C0252E8002F49
:101DCC0022F4907203F10C0545E800200028F3D1B1
:101DDC0003F1140252E8002F22F0010203F1140562
:101DEC0045E800200028F3D1202284F8422020630B
:101DFC0003F10C0252E8002F22F0100203F10C0543
:101E0C0045E800200028F3D102236363C5E71606DA
:101E1C0028D50D0626D594F84120212A7FF459AFF8
:101E2C00A168226AB1F5805F17D12169A9B932F88E
:101E3C00021BC1F3080159602262E28C013A92B292
:101E4C00E284002A7FF445AFDA6822F08002DA607F
:101E5C00DA6842F04002DA603BE7511C21621278EA
:101E6C005A60EAE750067FF534AF4A067FF531AF8A
:101E7C00DA68204622F04002DA60202384F84130F0
:101E8C00FFF753FE25E700BF3D1B00080346024445
:101E9C00934200D1704703F8011BF9E770B5002697
:101EAC000C4D0D4C641BA410A64209D100F01AF87D
:101EBC0000260A4D0A4C641BA410A64205D170BD25
:101ECC0055F8043B98470136EEE755F8043B984724
:101EDC000136F2E7341F0008341F0008341F0008D5
:101EEC00381F0008F8B500BFF8BC08BC9E46704708
:0C1EFC00F8B500BFF8BC08BC9E4670475B
:101F080000000000000000000102030406070809A1
:101F18000000000001020304020304050607080983
:0C1F28000A0B0C0D0E0F1010010200003F
:041F3400310100086F
:041F38000D0100088F
:0C1F3C000024F400010000001000000070
:04000005080009994D
:00000001FF
